Component: ARM Compiler 5.06 (build 20) Tool: armlink [4d35a3]

==============================================================================

Section Cross References

    stm32f4xx_qspi.o(i.QSPI_DeInit) refers to stm32f4xx_rcc.o(i.RCC_AHB3PeriphResetCmd) for RCC_AHB3PeriphResetCmd
    stm32f4xx_syscfg.o(i.SYSCFG_DeInit) refers to stm32f4xx_rcc.o(i.RCC_APB2PeriphResetCmd) for RCC_APB2PeriphResetCmd
    stm32f4xx_rcc.o(i.RCC_GetClocksFreq) refers to stm32f4xx_rcc.o(.data) for .data
    stm32f4xx_rcc.o(i.RCC_WaitForHSEStartUp) refers to stm32f4xx_rcc.o(i.RCC_GetFlagStatus) for RCC_GetFlagStatus
    stm32f4xx_cryp_tdes.o(i.CRYP_TDES_CBC) refers to stm32f4xx_cryp.o(i.CRYP_KeyStructInit) for CRYP_KeyStructInit
    stm32f4xx_cryp_tdes.o(i.CRYP_TDES_CBC) refers to stm32f4xx_cryp.o(i.CRYP_Init) for CRYP_Init
    stm32f4xx_cryp_tdes.o(i.CRYP_TDES_CBC) refers to stm32f4xx_cryp.o(i.CRYP_KeyInit) for CRYP_KeyInit
    stm32f4xx_cryp_tdes.o(i.CRYP_TDES_CBC) refers to stm32f4xx_cryp.o(i.CRYP_IVInit) for CRYP_IVInit
    stm32f4xx_cryp_tdes.o(i.CRYP_TDES_CBC) refers to stm32f4xx_cryp.o(i.CRYP_FIFOFlush) for CRYP_FIFOFlush
    stm32f4xx_cryp_tdes.o(i.CRYP_TDES_CBC) refers to stm32f4xx_cryp.o(i.CRYP_Cmd) for CRYP_Cmd
    stm32f4xx_cryp_tdes.o(i.CRYP_TDES_CBC) refers to stm32f4xx_cryp.o(i.CRYP_GetCmdStatus) for CRYP_GetCmdStatus
    stm32f4xx_cryp_tdes.o(i.CRYP_TDES_CBC) refers to stm32f4xx_cryp.o(i.CRYP_DataIn) for CRYP_DataIn
    stm32f4xx_cryp_tdes.o(i.CRYP_TDES_CBC) refers to stm32f4xx_cryp.o(i.CRYP_GetFlagStatus) for CRYP_GetFlagStatus
    stm32f4xx_cryp_tdes.o(i.CRYP_TDES_CBC) refers to stm32f4xx_cryp.o(i.CRYP_DataOut) for CRYP_DataOut
    stm32f4xx_cryp_tdes.o(i.CRYP_TDES_ECB) refers to stm32f4xx_cryp.o(i.CRYP_KeyStructInit) for CRYP_KeyStructInit
    stm32f4xx_cryp_tdes.o(i.CRYP_TDES_ECB) refers to stm32f4xx_cryp.o(i.CRYP_Init) for CRYP_Init
    stm32f4xx_cryp_tdes.o(i.CRYP_TDES_ECB) refers to stm32f4xx_cryp.o(i.CRYP_KeyInit) for CRYP_KeyInit
    stm32f4xx_cryp_tdes.o(i.CRYP_TDES_ECB) refers to stm32f4xx_cryp.o(i.CRYP_FIFOFlush) for CRYP_FIFOFlush
==============================================================================

Removing Unused input sections from the image.

    Removing stm32f4xx_dcmi.o(.rev16_text), (4 bytes).
    Removing stm32f4xx_dcmi.o(.revsh_text), (4 bytes).
    Removing stm32f4xx_dcmi.o(.rrx_text), (6 bytes).
    Removing stm32f4xx_dcmi.o(i.DCMI_CROPCmd), (28 bytes).
    Removing stm32f4xx_dcmi.o(i.DCMI_CROPConfig), (24 bytes).
    Removing stm32f4xx_dcmi.o(i.DCMI_CaptureCmd), (28 bytes).
    Removing stm32f4xx_dcmi.o(i.DCMI_ClearFlag), (12 bytes).
    Removing stm32f4xx_dcmi.o(i.DCMI_ClearITPendingBit), (12 bytes).
    Removing stm32f4xx_dcmi.o(i.DCMI_Cmd), (28 bytes).
    Removing stm32f4xx_dcmi.o(i.DCMI_DeInit), (28 bytes).
    Removing stm32f4xx_dcmi.o(i.DCMI_GetFlagStatus), (36 bytes).
    Removing stm32f4xx_dcmi.o(i.DCMI_GetITStatus), (20 bytes).
    Removing stm32f4xx_dcmi.o(i.DCMI_ITConfig), (28 bytes).
    Removing stm32f4xx_dcmi.o(i.DCMI_Init), (60 bytes).
    Removing stm32f4xx_dcmi.o(i.DCMI_JPEGCmd), (28 bytes).
    Removing stm32f4xx_dcmi.o(i.DCMI_ReadData), (12 bytes).
    Removing stm32f4xx_dcmi.o(i.DCMI_SetEmbeddedSynchroCodes), (20 bytes).
    Removing stm32f4xx_dcmi.o(i.DCMI_StructInit), (18 bytes).
==============================================================================

Image Symbol Table

    Local Symbols

    Symbol Name                              Value     Ov Type        Size  Object(Section)

    ../clib/microlib/division.c              0x00000000   Number         0  uldiv.o ABSOLUTE
    ../clib/microlib/division.c              0x00000000   Number         0  uidiv.o ABSOLUTE
    ../clib/microlib/errno.c                 0x00000000   Number         0  errno.o ABSOLUTE
    ../clib/microlib/init/entry.s            0x00000000   Number         0  entry.o ABSOLUTE
    ../clib/microlib/init/entry.s            0x00000000   Number         0  entry10a.o ABSOLUTE
    ../clib/microlib/init/entry.s            0x00000000   Number         0  entry9a.o ABSOLUTE
    ../clib/microlib/init/entry.s            0x00000000   Number         0  entry8b.o ABSOLUTE
    ../clib/microlib/init/entry.s            0x00000000   Number         0  entry8a.o ABSOLUTE
    ../clib/microlib/init/entry.s            0x00000000   Number         0  entry11b.o ABSOLUTE
    ../clib/microlib/init/entry.s            0x00000000   Number         0  entry7b.o ABSOLUTE
    ../clib/microlib/init/entry.s            0x00000000   Number         0  entry7a.o ABSOLUTE
    ../clib/microlib/init/entry.s            0x00000000   Number         0  entry11a.o ABSOLUTE
    ../clib/microlib/init/entry.s            0x00000000   Number         0  entry9b.o ABSOLUTE
    ../clib/microlib/init/entry.s            0x00000000   Number         0  entry10b.o ABSOLUTE
    ../clib/microlib/init/entry.s            0x00000000   Number         0  entry5.o ABSOLUTE
    ../clib/microlib/init/entry.s            0x00000000   Number         0  entry2.o ABSOLUTE
    ../clib/microlib/longlong.c              0x00000000   Number         0  llushr.o ABSOLUTE
    ../clib/microlib/longlong.c              0x00000000   Number         0  llshl.o ABSOLUTE
    ../clib/microlib/longlong.c              0x00000000   Number         0  llsshr.o ABSOLUTE
    ../clib/microlib/printf/printf.c         0x00000000   Number         0  printf8.o ABSOLUTE
    ../clib/microlib/printf/printf.c         0x00000000   Number         0  printfa.o ABSOLUTE
    ../clib/microlib/printf/printf.c         0x00000000   Number         0  printf2.o ABSOLUTE
    ../clib/microlib/printf/printf.c         0x00000000   Number         0  printf4.o ABSOLUTE
    ../clib/microlib/printf/printf.c         0x00000000   Number         0  printf3.o ABSOLUTE
    ../clib/microlib/printf/printf.c         0x00000000   Number         0  printf6.o ABSOLUTE
    ../clib/microlib/printf/printf.c         0x00000000   Number         0  printf1.o ABSOLUTE
    ../clib/microlib/printf/printf.c         0x00000000   Number         0  printf0.o ABSOLUTE
    ../clib/microlib/printf/printf.c         0x00000000   Number         0  printfb.o ABSOLUTE
    ../clib/microlib/printf/printf.c         0x00000000   Number         0  printf5.o ABSOLUTE
    ../clib/microlib/printf/printf.c         0x00000000   Number         0  printf7.o ABSOLUTE
    ../clib/microlib/printf/stubs.s          0x00000000   Number         0  stubs.o ABSOLUTE
    ../clib/microlib/stubs.s                 0x00000000   Number         0  useno.o ABSOLUTE
    ../clib/microlib/stubs.s                 0x00000000   Number         0  iusefp.o ABSOLUTE
    ../fplib/microlib/fpadd.c                0x00000000   Number         0  dadd.o ABSOLUTE
    ../fplib/microlib/fpdiv.c                0x00000000   Number         0  ddiv.o ABSOLUTE
    ../fplib/microlib/fpepilogue.c           0x00000000   Number         0  depilogue.o ABSOLUTE
    ../fplib/microlib/fpfix.c                0x00000000   Number         0  dfixul.o ABSOLUTE
    ../fplib/microlib/fpmul.c                0x00000000   Number         0  dmul.o ABSOLUTE
    ../mathlib/sqrtf.c                       0x00000000   Number         0  sqrtf_x.o ABSOLUTE
    ../mathlib/sqrtf.c                       0x00000000   Number         0  sqrtf.o ABSOLUTE
    ..\..\..\Libraries\CMSIS\Device\ST\STM32F4xx\Source\Templates\arm\startup_stm32f446xx.s 0x00000000   Number         0  startup_stm32f446xx.o ABSOLUTE
    ..\..\..\Libraries\STM32F4xx_StdPeriph_Driver\src\misc.c 0x00000000   Number         0  misc.o ABSOLUTE
    ..\..\..\Libraries\STM32F4xx_StdPeriph_Driver\src\stm32f4xx_adc.c 0x00000000   Number         0  stm32f4xx_adc.o ABSOLUTE
    ..\..\..\Libraries\STM32F4xx_StdPeriph_Driver\src\stm32f4xx_can.c 0x00000000   Number         0  stm32f4xx_can.o ABSOLUTE
    ..\..\..\Libraries\STM32F4xx_StdPeriph_Driver\src\stm32f4xx_cec.c 0x00000000   Number         0  stm32f4xx_cec.o ABSOLUTE
    ..\..\..\Libraries\STM32F4xx_StdPeriph_Driver\src\stm32f4xx_crc.c 0x00000000   Number         0  stm32f4xx_crc.o ABSOLUTE
    ..\..\..\Libraries\STM32F4xx_StdPeriph_Driver\src\stm32f4xx_cryp.c 0x00000000   Number         0  stm32f4xx_cryp.o ABSOLUTE
    ..\..\..\Libraries\STM32F4xx_StdPeriph_Driver\src\stm32f4xx_cryp_aes.c 0x00000000   Number         0  stm32f4xx_cryp_aes.o ABSOLUTE
    ..\..\..\Libraries\STM32F4xx_StdPeriph_Driver\src\stm32f4xx_cryp_des.c 0x00000000   Number         0  stm32f4xx_cryp_des.o ABSOLUTE
    ..\..\..\Libraries\STM32F4xx_StdPeriph_Driver\src\stm32f4xx_cryp_tdes.c 0x00000000   Number         0  stm32f4xx_cryp_tdes.o ABSOLUTE
    ..\..\..\Libraries\STM32F4xx_StdPeriph_Driver\src\stm32f4xx_dac.c 0x00000000   Number         0  stm32f4xx_dac.o ABSOLUTE
    ..\..\..\Libraries\STM32F4xx_StdPeriph_Driver\src\stm32f4xx_dbgmcu.c 0x00000000   Number         0  stm32f4xx_dbgmcu.o ABSOLUTE
    ..\..\..\Libraries\STM32F4xx_StdPeriph_Driver\src\stm32f4xx_dcmi.c 0x00000000   Number         0  stm32f4xx_dcmi.o ABSOLUTE
    ..\..\..\Libraries\STM32F4xx_StdPeriph_Driver\src\stm32f4xx_dma.c 0x00000000   Number         0  stm32f4xx_dma.o ABSOLUTE
    ..\..\..\Libraries\STM32F4xx_StdPeriph_Driver\src\stm32f4xx_dma2d.c 0x00000000   Number         0  stm32f4xx_dma2d.o ABSOLUTE
    ..\..\..\Libraries\STM32F4xx_StdPeriph_Driver\src\stm32f4xx_exti.c 0x00000000   Number         0  stm32f4xx_exti.o ABSOLUTE
    ..\..\..\Libraries\STM32F4xx_StdPeriph_Driver\src\stm32f4xx_flash.c 0x00000000   Number         0  stm32f4xx_flash.o ABSOLUTE
    ..\..\..\Libraries\STM32F4xx_StdPeriph_Driver\src\stm32f4xx_fmc.c 0x00000000   Number         0  stm32f4xx_fmc.o ABSOLUTE
    ..\..\..\Libraries\STM32F4xx_StdPeriph_Driver\src\stm32f4xx_fmpi2c.c 0x00000000   Number         0  stm32f4xx_fmpi2c.o ABSOLUTE
    ..\..\..\Libraries\STM32F4xx_StdPeriph_Driver\src\stm32f4xx_gpio.c 0x00000000   Number         0  stm32f4xx_gpio.o ABSOLUTE
    ..\..\..\Libraries\STM32F4xx_StdPeriph_Driver\src\stm32f4xx_hash.c 0x00000000   Number         0  stm32f4xx_hash.o ABSOLUTE
    ..\..\..\Libraries\STM32F4xx_StdPeriph_Driver\src\stm32f4xx_hash_md5.c 0x00000000   Number         0  stm32f4xx_hash_md5.o ABSOLUTE
    ..\..\..\Libraries\STM32F4xx_StdPeriph_Driver\src\stm32f4xx_hash_sha1.c 0x00000000   Number         0  stm32f4xx_hash_sha1.o ABSOLUTE
    ..\..\..\Libraries\STM32F4xx_StdPeriph_Driver\src\stm32f4xx_i2c.c 0x00000000   Number         0  stm32f4xx_i2c.o ABSOLUTE
    ..\..\..\Libraries\STM32F4xx_StdPeriph_Driver\src\stm32f4xx_iwdg.c 0x00000000   Number         0  stm32f4xx_iwdg.o ABSOLUTE
    ..\..\..\Libraries\STM32F4xx_StdPeriph_Driver\src\stm32f4xx_lptim.c 0x00000000   Number         0  stm32f4xx_lptim.o ABSOLUTE
    ..\..\..\Libraries\STM32F4xx_StdPeriph_Driver\src\stm32f4xx_ltdc.c 0x00000000   Number         0  stm32f4xx_ltdc.o ABSOLUTE
    ..\..\..\Libraries\STM32F4xx_StdPeriph_Driver\src\stm32f4xx_pwr.c 0x00000000   Number         0  stm32f4xx_pwr.o ABSOLUTE
    ..\..\..\Libraries\STM32F4xx_StdPeriph_Driver\src\stm32f4xx_qspi.c 0x00000000   Number         0  stm32f4xx_qspi.o ABSOLUTE
    ..\..\..\Libraries\STM32F4xx_StdPeriph_Driver\src\stm32f4xx_rcc.c 0x00000000   Number         0  stm32f4xx_rcc.o ABSOLUTE
    ..\..\..\Libraries\STM32F4xx_StdPeriph_Driver\src\stm32f4xx_rng.c 0x00000000   Number         0  stm32f4xx_rng.o ABSOLUTE
    ..\..\..\Libraries\STM32F4xx_StdPeriph_Driver\src\stm32f4xx_rtc.c 0x00000000   Number         0  stm32f4xx_rtc.o ABSOLUTE
    ..\..\..\Libraries\STM32F4xx_StdPeriph_Driver\src\stm32f4xx_sai.c 0x00000000   Number         0  stm32f4xx_sai.o ABSOLUTE
    ..\..\..\Libraries\STM32F4xx_StdPeriph_Driver\src\stm32f4xx_sdio.c 0x00000000   Number         0  stm32f4xx_sdio.o ABSOLUTE
    ..\..\..\Libraries\STM32F4xx_StdPeriph_Driver\src\stm32f4xx_spdifrx.c 0x00000000   Number         0  stm32f4xx_spdifrx.o ABSOLUTE
    ..\..\..\Libraries\STM32F4xx_StdPeriph_Driver\src\stm32f4xx_spi.c 0x00000000   Number         0  stm32f4xx_spi.o ABSOLUTE
    ..\..\..\Libraries\STM32F4xx_StdPeriph_Driver\src\stm32f4xx_syscfg.c 0x00000000   Number         0  stm32f4xx_syscfg.o ABSOLUTE
    ..\..\..\Libraries\STM32F4xx_StdPeriph_Driver\src\stm32f4xx_tim.c 0x00000000   Number         0  stm32f4xx_tim.o ABSOLUTE
    ..\..\..\Libraries\STM32F4xx_StdPeriph_Driver\src\stm32f4xx_usart.c 0x00000000   Number         0  stm32f4xx_usart.o ABSOLUTE
    ..\..\..\Libraries\STM32F4xx_StdPeriph_Driver\src\stm32f4xx_wwdg.c 0x00000000   Number         0  stm32f4xx_wwdg.o ABSOLUTE
    ..\\..\\..\\Libraries\\STM32F4xx_StdPeriph_Driver\\src\\misc.c 0x00000000   Number         0  misc.o ABSOLUTE
    ..\\..\\..\\Libraries\\STM32F4xx_StdPeriph_Driver\\src\\stm32f4xx_adc.c 0x00000000   Number         0  stm32f4xx_adc.o ABSOLUTE
    ..\\..\\..\\Libraries\\STM32F4xx_StdPeriph_Driver\\src\\stm32f4xx_can.c 0x00000000   Number         0  stm32f4xx_can.o ABSOLUTE
    ..\\..\\..\\Libraries\\STM32F4xx_StdPeriph_Driver\\src\\stm32f4xx_cec.c 0x00000000   Number         0  stm32f4xx_cec.o ABSOLUTE
    ..\\..\\..\\Libraries\\STM32F4xx_StdPeriph_Driver\\src\\stm32f4xx_crc.c 0x00000000   Number         0  stm32f4xx_crc.o ABSOLUTE
    ..\\..\\..\\Libraries\\STM32F4xx_StdPeriph_Driver\\src\\stm32f4xx_cryp.c 0x00000000   Number         0  stm32f4xx_cryp.o ABSOLUTE
    ..\\..\\..\\Libraries\\STM32F4xx_StdPeriph_Driver\\src\\stm32f4xx_cryp_aes.c 0x00000000   Number         0  stm32f4xx_cryp_aes.o ABSOLUTE
    ..\\..\\..\\Libraries\\STM32F4xx_StdPeriph_Driver\\src\\stm32f4xx_cryp_des.c 0x00000000   Number         0  stm32f4xx_cryp_des.o ABSOLUTE
    ..\\..\\..\\Libraries\\STM32F4xx_StdPeriph_Driver\\src\\stm32f4xx_cryp_tdes.c 0x00000000   Number         0  stm32f4xx_cryp_tdes.o ABSOLUTE
    ..\\..\\..\\Libraries\\STM32F4xx_StdPeriph_Driver\\src\\stm32f4xx_dac.c 0x00000000   Number         0  stm32f4xx_dac.o ABSOLUTE
    ..\\..\\..\\Libraries\\STM32F4xx_StdPeriph_Driver\\src\\stm32f4xx_dbgmcu.c 0x00000000   Number         0  stm32f4xx_dbgmcu.o ABSOLUTE
    ..\\..\\..\\Libraries\\STM32F4xx_StdPeriph_Driver\\src\\stm32f4xx_dcmi.c 0x00000000   Number         0  stm32f4xx_dcmi.o ABSOLUTE
    ..\\..\\..\\Libraries\\STM32F4xx_StdPeriph_Driver\\src\\stm32f4xx_dma.c 0x00000000   Number         0  stm32f4xx_dma.o ABSOLUTE
    ..\\..\\..\\Libraries\\STM32F4xx_StdPeriph_Driver\\src\\stm32f4xx_dma2d.c 0x00000000   Number         0  stm32f4xx_dma2d.o ABSOLUTE
    ..\\..\\..\\Libraries\\STM32F4xx_StdPeriph_Driver\\src\\stm32f4xx_exti.c 0x00000000   Number         0  stm32f4xx_exti.o ABSOLUTE
    ..\\..\\..\\Libraries\\STM32F4xx_StdPeriph_Driver\\src\\stm32f4xx_flash.c 0x00000000   Number         0  stm32f4xx_flash.o ABSOLUTE
    ..\\..\\..\\Libraries\\STM32F4xx_StdPeriph_Driver\\src\\stm32f4xx_fmc.c 0x00000000   Number         0  stm32f4xx_fmc.o ABSOLUTE
    ..\\..\\..\\Libraries\\STM32F4xx_StdPeriph_Driver\\src\\stm32f4xx_fmpi2c.c 0x00000000   Number         0  stm32f4xx_fmpi2c.o ABSOLUTE
    ..\\..\\..\\Libraries\\STM32F4xx_StdPeriph_Driver\\src\\stm32f4xx_gpio.c 0x00000000   Number         0  stm32f4xx_gpio.o ABSOLUTE
    ..\\..\\..\\Libraries\\STM32F4xx_StdPeriph_Driver\\src\\stm32f4xx_hash.c 0x00000000   Number         0  stm32f4xx_hash.o ABSOLUTE
    ..\\..\\..\\Libraries\\STM32F4xx_StdPeriph_Driver\\src\\stm32f4xx_hash_md5.c 0x00000000   Number         0  stm32f4xx_hash_md5.o ABSOLUTE
    ..\\..\\..\\Libraries\\STM32F4xx_StdPeriph_Driver\\src\\stm32f4xx_hash_sha1.c 0x00000000   Number         0  stm32f4xx_hash_sha1.o ABSOLUTE
    ..\\..\\..\\Libraries\\STM32F4xx_StdPeriph_Driver\\src\\stm32f4xx_i2c.c 0x00000000   Number         0  stm32f4xx_i2c.o ABSOLUTE
    ..\\..\\..\\Libraries\\STM32F4xx_StdPeriph_Driver\\src\\stm32f4xx_iwdg.c 0x00000000   Number         0  stm32f4xx_iwdg.o ABSOLUTE
    ..\\..\\..\\Libraries\\STM32F4xx_StdPeriph_Driver\\src\\stm32f4xx_lptim.c 0x00000000   Number         0  stm32f4xx_lptim.o ABSOLUTE
    ..\\..\\..\\Libraries\\STM32F4xx_StdPeriph_Driver\\src\\stm32f4xx_ltdc.c 0x00000000   Number         0  stm32f4xx_ltdc.o ABSOLUTE
    ..\\..\\..\\Libraries\\STM32F4xx_StdPeriph_Driver\\src\\stm32f4xx_pwr.c 0x00000000   Number         0  stm32f4xx_pwr.o ABSOLUTE
    ..\\..\\..\\Libraries\\STM32F4xx_StdPeriph_Driver\\src\\stm32f4xx_qspi.c 0x00000000   Number         0  stm32f4xx_qspi.o ABSOLUTE
    ..\\..\\..\\Libraries\\STM32F4xx_StdPeriph_Driver\\src\\stm32f4xx_rcc.c 0x00000000   Number         0  stm32f4xx_rcc.o ABSOLUTE
    ..\\..\\..\\Libraries\\STM32F4xx_StdPeriph_Driver\\src\\stm32f4xx_rng.c 0x00000000   Number         0  stm32f4xx_rng.o ABSOLUTE
    ..\\..\\..\\Libraries\\STM32F4xx_StdPeriph_Driver\\src\\stm32f4xx_rtc.c 0x00000000   Number         0  stm32f4xx_rtc.o ABSOLUTE
    ..\\..\\..\\Libraries\\STM32F4xx_StdPeriph_Driver\\src\\stm32f4xx_sai.c 0x00000000   Number         0  stm32f4xx_sai.o ABSOLUTE
    ..\\..\\..\\Libraries\\STM32F4xx_StdPeriph_Driver\\src\\stm32f4xx_sdio.c 0x00000000   Number         0  stm32f4xx_sdio.o ABSOLUTE
    ..\\..\\..\\Libraries\\STM32F4xx_StdPeriph_Driver\\src\\stm32f4xx_spdifrx.c 0x00000000   Number         0  stm32f4xx_spdifrx.o ABSOLUTE
    ..\\..\\..\\Libraries\\STM32F4xx_StdPeriph_Driver\\src\\stm32f4xx_spi.c 0x00000000   Number         0  stm32f4xx_spi.o ABSOLUTE
    ..\\..\\..\\Libraries\\STM32F4xx_StdPeriph_Driver\\src\\stm32f4xx_syscfg.c 0x00000000   Number         0  stm32f4xx_syscfg.o ABSOLUTE
    ..\\..\\..\\Libraries\\STM32F4xx_StdPeriph_Driver\\src\\stm32f4xx_tim.c 0x00000000   Number         0  stm32f4xx_tim.o ABSOLUTE
    ..\\..\\..\\Libraries\\STM32F4xx_StdPeriph_Driver\\src\\stm32f4xx_usart.c 0x00000000   Number         0  stm32f4xx_usart.o ABSOLUTE
    ..\\..\\..\\Libraries\\STM32F4xx_StdPeriph_Driver\\src\\stm32f4xx_wwdg.c 0x00000000   Number         0  stm32f4xx_wwdg.o ABSOLUTE
    ..\\can.c                                0x00000000   Number         0  can.o ABSOLUTE
    ..\\cluster.c                            0x00000000   Number         0  cluster.o ABSOLUTE
    ..\\dac.c                                0x00000000   Number         0  dac.o ABSOLUTE
    ..\\i2c.c                                0x00000000   Number         0  i2c.o ABSOLUTE
    ..\\init.c                               0x00000000   Number         0  init.o ABSOLUTE
    ..\\leastSquares.c                       0x00000000   Number         0  leastsquares.o ABSOLUTE
    ..\\lidar.c                              0x00000000   Number         0  lidar.o ABSOLUTE
    ..\\main.c                               0x00000000   Number         0  main_1.o ABSOLUTE
    ..\\map.c                                0x00000000   Number         0  map.o ABSOLUTE
    ..\\motor.c                              0x00000000   Number         0  motor.o ABSOLUTE
    ..\\stats.c                              0x00000000   Number         0  stats.o ABSOLUTE
    ..\\stm32f4xx_it.c                       0x00000000   Number         0  stm32f4xx_it_1.o ABSOLUTE
    ..\\system_stm32f4xx.c                   0x00000000   Number         0  system_stm32f4xx.o ABSOLUTE
    ..\\tim2.c                               0x00000000   Number         0  tim2.o ABSOLUTE
    ..\\usart.c                              0x00000000   Number         0  usart.o ABSOLUTE
    ..\\watchdog.c                           0x00000000   Number         0  watchdog.o ABSOLUTE
    ..\can.c                                 0x00000000   Number         0  can.o ABSOLUTE
    ..\cluster.c                             0x00000000   Number         0  cluster.o ABSOLUTE
    ..\dac.c                                 0x00000000   Number         0  dac.o ABSOLUTE
    ..\i2c.c                                 0x00000000   Number         0  i2c.o ABSOLUTE
    ..\init.c                                0x00000000   Number         0  init.o ABSOLUTE
    ..\leastSquares.c                        0x00000000   Number         0  leastsquares.o ABSOLUTE
    ..\lidar.c                               0x00000000   Number         0  lidar.o ABSOLUTE
    ..\main.c                                0x00000000   Number         0  main_1.o ABSOLUTE
    ..\map.c                                 0x00000000   Number         0  map.o ABSOLUTE
    ..\motor.c                               0x00000000   Number         0  motor.o ABSOLUTE
    ..\stats.c                               0x00000000   Number         0  stats.o ABSOLUTE
    ..\stm32f4xx_it.c                        0x00000000   Number         0  stm32f4xx_it_1.o ABSOLUTE
    ..\system_stm32f4xx.c                    0x00000000   Number         0  system_stm32f4xx.o ABSOLUTE
    ..\tim2.c                                0x00000000   Number         0  tim2.o ABSOLUTE
    ..\usart.c                               0x00000000   Number         0  usart.o ABSOLUTE
    ..\watchdog.c                            0x00000000   Number         0  watchdog.o ABSOLUTE
    Retarget.c                               0x00000000   Number         0  retarget.o ABSOLUTE
    Retarget.c                               0x00000000   Number         0  retarget.o ABSOLUTE
    cdrcmple.s                               0x00000000   Number         0  cdrcmple.o ABSOLUTE
    dc.s                                     0x00000000   Number         0  dc.o ABSOLUTE
    handlers.s                               0x00000000   Number         0  handlers.o ABSOLUTE
    init.s                                   0x00000000   Number         0  init.o ABSOLUTE
    pwmInput.c                               0x00000000   Number         0  pwminput.o ABSOLUTE
    pwmInput.c                               0x00000000   Number         0  pwminput.o ABSOLUTE
    utils.c                                  0x00000000   Number         0  utils.o ABSOLUTE
    utils.c                                  0x00000000   Number         0  utils.o ABSOLUTE
    RESET                                    0x08000000   Section      452  startup_stm32f446xx.o(RESET)
    .ARM.Collect$$$$00000000                 0x080001c4   Section        0  entry.o(.ARM.Collect$$$$00000000)
    .ARM.Collect$$$$00000001                 0x080001c4   Section        4  entry2.o(.ARM.Collect$$$$00000001)
    .ARM.Collect$$$$00000004                 0x080001c8   Section        4  entry5.o(.ARM.Collect$$$$00000004)
    .ARM.Collect$$$$00000008                 0x080001cc   Section        0  entry7b.o(.ARM.Collect$$$$00000008)
    .ARM.Collect$$$$0000000A                 0x080001cc   Section        0  entry8b.o(.ARM.Collect$$$$0000000A)
    .ARM.Collect$$$$0000000B                 0x080001cc   Section        8  entry9a.o(.ARM.Collect$$$$0000000B)
    .ARM.Collect$$$$0000000D                 0x080001d4   Section        0  entry10a.o(.ARM.Collect$$$$0000000D)
    .ARM.Collect$$$$0000000F                 0x080001d4   Section        0  entry11a.o(.ARM.Collect$$$$0000000F)
    .ARM.Collect$$$$00002712                 0x080001d4   Section        4  entry2.o(.ARM.Collect$$$$00002712)
    __lit__00000000                          0x080001d4   Data           4  entry2.o(.ARM.Collect$$$$00002712)
    .text                                    0x080001d8   Section       36  startup_stm32f446xx.o(.text)
    $v0                                      0x080001d8   Number         0  startup_stm32f446xx.o(.text)
    .text                                    0x080001fc   Section        0  uldiv.o(.text)
    .text                                    0x08000260   Section       36  init.o(.text)
    .text                                    0x08000284   Section        0  llshl.o(.text)
    .text                                    0x080002a2   Section        0  llushr.o(.text)
    i.BusFault_Handler                       0x080002c2   Section        0  stm32f4xx_it_1.o(i.BusFault_Handler)
    i.CAN1_Config                            0x080002c4   Section        0  can.o(i.CAN1_Config)
    i.CAN_DeInit                             0x0800037c   Section        0  stm32f4xx_can.o(i.CAN_DeInit)
    i.CAN_FilterInit                         0x080003a8   Section        0  stm32f4xx_can.o(i.CAN_FilterInit)
    i.CAN_GetFlagStatus                      0x08000474   Section        0  stm32f4xx_can.o(i.CAN_GetFlagStatus)
    i.CAN_Init                               0x080004a8   Section        0  stm32f4xx_can.o(i.CAN_Init)
    i.CAN_Receive                            0x08000590   Section        0  stm32f4xx_can.o(i.CAN_Receive)
    i.CAN_StructInit                         0x0800061e   Section        0  stm32f4xx_can.o(i.CAN_StructInit)
    i.CAN_Transmit                           0x0800063e   Section        0  stm32f4xx_can.o(i.CAN_Transmit)
    i.DAC_Cmd                                0x080006e4   Section        0  stm32f4xx_dac.o(i.DAC_Cmd)
    i.DAC_Init                               0x080006fc   Section        0  stm32f4xx_dac.o(i.DAC_Init)
    i.DAC_SetChannel1Data                    0x08000724   Section        0  stm32f4xx_dac.o(i.DAC_SetChannel1Data)
    i.DAC_SetChannel2Data                    0x08000738   Section        0  stm32f4xx_dac.o(i.DAC_SetChannel2Data)
    i.DebugMon_Handler                       0x0800074c   Section        0  stm32f4xx_it_1.o(i.DebugMon_Handler)
    i.EXTI0_IRQHandler                       0x0800074e   Section        0  stm32f4xx_it_1.o(i.EXTI0_IRQHandler)
    i.EXTI3_IRQHandler                       0x08000754   Section        0  stm32f4xx_it_1.o(i.EXTI3_IRQHandler)
    i.EXTI_GetITStatus                       0x0800075c   Section        0  stm32f4xx_exti.o(i.EXTI_GetITStatus)
    i.GPIO6                                  0x08000770   Section        0  utils.o(i.GPIO6)
    i.GPIO7                                  0x08000788   Section        0  utils.o(i.GPIO7)
    i.GPIO9                                  0x080007a0   Section        0  utils.o(i.GPIO9)
    i.GPIO_Init                              0x080007b8   Section        0  stm32f4xx_gpio.o(i.GPIO_Init)
    i.GPIO_PinAFConfig                       0x08000830   Section        0  stm32f4xx_gpio.o(i.GPIO_PinAFConfig)
    i.GPIO_ReadInputDataBit                  0x08000850   Section        0  stm32f4xx_gpio.o(i.GPIO_ReadInputDataBit)
    i.GPIO_ResetBits                         0x0800085e   Section        0  stm32f4xx_gpio.o(i.GPIO_ResetBits)
    i.GPIO_SetBits                           0x08000862   Section        0  stm32f4xx_gpio.o(i.GPIO_SetBits)
    i.HardFault_Handler                      0x08000866   Section        0  stm32f4xx_it_1.o(i.HardFault_Handler)
    i.I2C_CheckEvent                         0x08000868   Section        0  stm32f4xx_i2c.o(i.I2C_CheckEvent)
    i.I2C_Cmd                                0x08000880   Section        0  stm32f4xx_i2c.o(i.I2C_Cmd)
    i.I2C_GenerateSTART                      0x08000894   Section        0  stm32f4xx_i2c.o(i.I2C_GenerateSTART)
    i.I2C_GenerateSTOP                       0x080008a8   Section        0  stm32f4xx_i2c.o(i.I2C_GenerateSTOP)
    i.I2C_GetFlagStatus                      0x080008bc   Section        0  stm32f4xx_i2c.o(i.I2C_GetFlagStatus)
    i.I2C_Init                               0x080008e8   Section        0  stm32f4xx_i2c.o(i.I2C_Init)
    i.I2C_Send7bitAddress                    0x080009a0   Section        0  stm32f4xx_i2c.o(i.I2C_Send7bitAddress)
    i.I2C_SendData                           0x080009b0   Section        0  stm32f4xx_i2c.o(i.I2C_SendData)
    i.I2C_start                              0x080009b4   Section        0  i2c.o(i.I2C_start)
    i.I2C_stop                               0x08000a20   Section        0  i2c.o(i.I2C_stop)
    i.I2C_write                              0x08000a34   Section        0  i2c.o(i.I2C_write)
    i.IWDG_Enable                            0x08000a50   Section        0  stm32f4xx_iwdg.o(i.IWDG_Enable)
    i.IWDG_ReloadCounter                     0x08000a60   Section        0  stm32f4xx_iwdg.o(i.IWDG_ReloadCounter)
    i.IWDG_SetPrescaler                      0x08000a70   Section        0  stm32f4xx_iwdg.o(i.IWDG_SetPrescaler)
    i.IWDG_SetReload                         0x08000a7c   Section        0  stm32f4xx_iwdg.o(i.IWDG_SetReload)
    i.IWDG_WriteAccessCmd                    0x08000a88   Section        0  stm32f4xx_iwdg.o(i.IWDG_WriteAccessCmd)
    i.LED                                    0x08000a94   Section        0  utils.o(i.LED)
    i.LED_Setup                              0x08000aac   Section        0  utils.o(i.LED_Setup)
    i.MemManage_Handler                      0x08000ae0   Section        0  stm32f4xx_it_1.o(i.MemManage_Handler)
    i.NMI_Handler                            0x08000ae2   Section        0  stm32f4xx_it_1.o(i.NMI_Handler)
    i.PendSV_Handler                         0x08000ae4   Section        0  stm32f4xx_it_1.o(i.PendSV_Handler)
    i.RCC_AHB1PeriphClockCmd                 0x08000ae8   Section        0  stm32f4xx_rcc.o(i.RCC_AHB1PeriphClockCmd)
    i.RCC_APB1PeriphClockCmd                 0x08000b00   Section        0  stm32f4xx_rcc.o(i.RCC_APB1PeriphClockCmd)
    i.RCC_APB1PeriphResetCmd                 0x08000b18   Section        0  stm32f4xx_rcc.o(i.RCC_APB1PeriphResetCmd)
    i.RCC_ClearFlag                          0x08000b30   Section        0  stm32f4xx_rcc.o(i.RCC_ClearFlag)
    i.RCC_GetClocksFreq                      0x08000b40   Section        0  stm32f4xx_rcc.o(i.RCC_GetClocksFreq)
    i.RCC_GetFlagStatus                      0x08000bfc   Section        0  stm32f4xx_rcc.o(i.RCC_GetFlagStatus)
    i.SVC_Handler                            0x08000c30   Section        0  stm32f4xx_it_1.o(i.SVC_Handler)
    i.SetSysClock                            0x08000c34   Section        0  system_stm32f4xx.o(i.SetSysClock)
    SetSysClock                              0x08000c35   Thumb Code   190  system_stm32f4xx.o(i.SetSysClock)
    i.SysTick_Handler                        0x08000d04   Section        0  stm32f4xx_it_1.o(i.SysTick_Handler)
    i.SystemInit                             0x08000d08   Section        0  system_stm32f4xx.o(i.SystemInit)
    i.TIM2_IRQHandler                        0x08000d64   Section        0  stm32f4xx_it_1.o(i.TIM2_IRQHandler)
    i.TIM_GetITStatus                        0x08000d6c   Section        0  stm32f4xx_tim.o(i.TIM_GetITStatus)
    i.TimingDelay_Decrement                  0x08000d84   Section        0  utils.o(i.TimingDelay_Decrement)
    i.USART3_Configuration                   0x08000d98   Section        0  usart.o(i.USART3_Configuration)
    i.USART3_putc                            0x08000e20   Section        0  usart.o(i.USART3_putc)
    i.USART_Cmd                              0x08000e34   Section        0  stm32f4xx_usart.o(i.USART_Cmd)
    i.USART_Init                             0x08000e48   Section        0  stm32f4xx_usart.o(i.USART_Init)
    i.UsageFault_Handler                     0x08000ef4   Section        0  stm32f4xx_it_1.o(i.UsageFault_Handler)
    i.__0printf$5                            0x08000ef8   Section        0  printf5.o(i.__0printf$5)
    i.__scatterload_copy                     0x08000f18   Section       14  handlers.o(i.__scatterload_copy)
    i.__scatterload_null                     0x08000f26   Section        2  handlers.o(i.__scatterload_null)
    i.__scatterload_zeroinit                 0x08000f28   Section       14  handlers.o(i.__scatterload_zeroinit)
    i._printf_core                           0x08000f38   Section        0  printf5.o(i._printf_core)
    _printf_core                             0x08000f39   Thumb Code   658  printf5.o(i._printf_core)
    i.dac_init                               0x080011f8   Section        0  dac.o(i.dac_init)
    i.delay                                  0x0800126c   Section        0  utils.o(i.delay)
    i.endSetup                               0x08001280   Section        0  utils.o(i.endSetup)
    i.fputc                                  0x080012bc   Section        0  retarget.o(i.fputc)
    i.init                                   0x080012cc   Section        0  init.o(i.init)
    i.initButton                             0x08001500   Section        0  utils.o(i.initButton)
    i.init_GPIOs                             0x08001534   Section        0  utils.o(i.init_GPIOs)
    i.init_I2C1                              0x080015c0   Section        0  i2c.o(i.init_I2C1)
    i.init_I2C3                              0x08001650   Section        0  i2c.o(i.init_I2C3)
    i.init_lidar                             0x08001708   Section        0  lidar.o(i.init_lidar)
    i.init_triggerPin                        0x08001798   Section        0  utils.o(i.init_triggerPin)
    i.lidar_write                            0x080017cc   Section        0  lidar.o(i.lidar_write)
    i.main                                   0x080017f8   Section        0  main_1.o(i.main)
    i.printDone                              0x08001a80   Section        0  utils.o(i.printDone)
    i.startSetup                             0x08001a9c   Section        0  utils.o(i.startSetup)
    i.trigger_pin                            0x08001ae0   Section        0  utils.o(i.trigger_pin)
    i.watchdogInit                           0x08001af8   Section        0  watchdog.o(i.watchdogInit)
    .data                                    0x20000000   Section       16  stm32f4xx_rcc.o(.data)
    APBAHBPrescTable                         0x20000000   Data          16  stm32f4xx_rcc.o(.data)
    .data                                    0x20000010   Section       12  main_1.o(.data)
    .data                                    0x2000001c   Section        4  utils.o(.data)
    uwTimingDelay                            0x2000001c   Data           4  utils.o(.data)
    .data                                    0x20000020   Section        4  retarget.o(.data)
    .bss                                     0x20000024   Section       20  main_1.o(.bss)
    .bss                                     0x20000038   Section       26  can.o(.bss)
    STACK                                    0x20000058   Section     1024  startup_stm32f446xx.o(STACK)

    Global Symbols

    Symbol Name                              Value     Ov Type        Size  Object(Section)

    BuildAttributes$$THM_ISAv4$E$P$D$K$B$S$7EM$VFPi3$EXTD16$VFPS$VFMA$PE$A:L22UL41UL21$X:L11$S22US41US21$IEEE1$IW$USESV6$~STKCKD$USESV7$~SHL$OTIME$ROPI$IEEEJ$EBA8$MICROLIB$REQ8$PRES8$EABIv2 0x00000000   Number         0  anon$$obj.o ABSOLUTE
    __ARM_use_no_argv                        0x00000000   Number         0  main_1.o ABSOLUTE
    __use_no_errno                           0x00000000   Number         0  useno.o ABSOLUTE
    __use_no_exception_handling              0x00000000   Number         0  useno.o ABSOLUTE
    __use_no_fp                              0x00000000   Number         0  useno.o ABSOLUTE
    __use_no_heap                            0x00000000   Number         0  useno.o ABSOLUTE
    __use_no_heap_region                     0x00000000   Number         0  useno.o ABSOLUTE
    __use_no_semihosting                     0x00000000   Number         0  useno.o ABSOLUTE
    __use_no_semihosting_swi                 0x00000000   Number         0  useno.o ABSOLUTE
    __use_no_signal_handling                 0x00000000   Number         0  useno.o ABSOLUTE
    _printf_a                                0x00000000   Number         0  stubs.o ABSOLUTE
    _printf_c                                0x00000000   Number         0  stubs.o ABSOLUTE
    _printf_charcount                        0x00000000   Number         0  stubs.o ABSOLUTE
    _printf_d                                0x00000000   Number         0  stubs.o ABSOLUTE
    _printf_e                                0x00000000   Number         0  stubs.o ABSOLUTE
    _printf_f                                0x00000000   Number         0  stubs.o ABSOLUTE
    _printf_flags                            0x00000000   Number         0  stubs.o ABSOLUTE
    _printf_fp_dec                           0x00000000   Number         0  stubs.o ABSOLUTE
    _printf_fp_hex                           0x00000000   Number         0  stubs.o ABSOLUTE
    _printf_g                                0x00000000   Number         0  stubs.o ABSOLUTE
    _printf_i                                0x00000000   Number         0  stubs.o ABSOLUTE
    _printf_int_dec                          0x00000000   Number         0  stubs.o ABSOLUTE
    _printf_l                                0x00000000   Number         0  stubs.o ABSOLUTE
    _printf_lc                               0x00000000   Number         0  stubs.o ABSOLUTE
    _printf_ll                               0x00000000   Number         0  stubs.o ABSOLUTE
    _printf_lld                              0x00000000   Number         0  stubs.o ABSOLUTE
    _printf_lli                              0x00000000   Number         0  stubs.o ABSOLUTE
    _printf_llo                              0x00000000   Number         0  stubs.o ABSOLUTE
    _printf_llu                              0x00000000   Number         0  stubs.o ABSOLUTE
    _printf_llx                              0x00000000   Number         0  stubs.o ABSOLUTE
    _printf_longlong_dec                     0x00000000   Number         0  stubs.o ABSOLUTE
    _printf_longlong_hex                     0x00000000   Number         0  stubs.o ABSOLUTE
    _printf_longlong_oct                     0x00000000   Number         0  stubs.o ABSOLUTE
    _printf_ls                               0x00000000   Number         0  stubs.o ABSOLUTE
    _printf_mbtowc                           0x00000000   Number         0  stubs.o ABSOLUTE
    _printf_n                                0x00000000   Number         0  stubs.o ABSOLUTE
    _printf_o                                0x00000000   Number         0  stubs.o ABSOLUTE
    _printf_p                                0x00000000   Number         0  stubs.o ABSOLUTE
    _printf_percent                          0x00000000   Number         0  stubs.o ABSOLUTE
    _printf_pre_padding                      0x00000000   Number         0  stubs.o ABSOLUTE
    _printf_return_value                     0x00000000   Number         0  stubs.o ABSOLUTE
    _printf_s                                0x00000000   Number         0  stubs.o ABSOLUTE
    _printf_sizespec                         0x00000000   Number         0  stubs.o ABSOLUTE
    _printf_str                              0x00000000   Number         0  stubs.o ABSOLUTE
    _printf_truncate_signed                  0x00000000   Number         0  stubs.o ABSOLUTE
    _printf_truncate_unsigned                0x00000000   Number         0  stubs.o ABSOLUTE
    _printf_u                                0x00000000   Number         0  stubs.o ABSOLUTE
    _printf_wc                               0x00000000   Number         0  stubs.o ABSOLUTE
    _printf_wctomb                           0x00000000   Number         0  stubs.o ABSOLUTE
    _printf_widthprec                        0x00000000   Number         0  stubs.o ABSOLUTE
    _printf_x                                0x00000000   Number         0  stubs.o ABSOLUTE
    __cpp_initialize__aeabi_                  - Undefined Weak Reference
    __cxa_finalize                            - Undefined Weak Reference
    __decompress                              - Undefined Weak Reference
    _clock_init                               - Undefined Weak Reference
    _microlib_exit                            - Undefined Weak Reference
    __Vectors_Size                           0x000001c4   Number         0  startup_stm32f446xx.o ABSOLUTE
    __Vectors                                0x08000000   Data           4  startup_stm32f446xx.o(RESET)
    __Vectors_End                            0x080001c4   Data           0  startup_stm32f446xx.o(RESET)
    __main                                   0x080001c5   Thumb Code     0  entry.o(.ARM.Collect$$$$00000000)
    _main_stk                                0x080001c5   Thumb Code     0  entry2.o(.ARM.Collect$$$$00000001)
    _main_scatterload                        0x080001c9   Thumb Code     0  entry5.o(.ARM.Collect$$$$00000004)
    __main_after_scatterload                 0x080001cd   Thumb Code     0  entry5.o(.ARM.Collect$$$$00000004)
    _main_clock                              0x080001cd   Thumb Code     0  entry7b.o(.ARM.Collect$$$$00000008)
    _main_cpp_init                           0x080001cd   Thumb Code     0  entry8b.o(.ARM.Collect$$$$0000000A)
    _main_init                               0x080001cd   Thumb Code     0  entry9a.o(.ARM.Collect$$$$0000000B)
    __rt_final_cpp                           0x080001d5   Thumb Code     0  entry10a.o(.ARM.Collect$$$$0000000D)
    __rt_final_exit                          0x080001d5   Thumb Code     0  entry11a.o(.ARM.Collect$$$$0000000F)
    Reset_Handler                            0x080001d9   Thumb Code     8  startup_stm32f446xx.o(.text)
    ADC_IRQHandler                           0x080001f3   Thumb Code     0  startup_stm32f446xx.o(.text)
    CAN1_RX0_IRQHandler                      0x080001f3   Thumb Code     0  startup_stm32f446xx.o(.text)
    CAN1_RX1_IRQHandler                      0x080001f3   Thumb Code     0  startup_stm32f446xx.o(.text)
    CAN1_SCE_IRQHandler                      0x080001f3   Thumb Code     0  startup_stm32f446xx.o(.text)
    CAN1_TX_IRQHandler                       0x080001f3   Thumb Code     0  startup_stm32f446xx.o(.text)
    CAN2_RX0_IRQHandler                      0x080001f3   Thumb Code     0  startup_stm32f446xx.o(.text)
    CAN2_RX1_IRQHandler                      0x080001f3   Thumb Code     0  startup_stm32f446xx.o(.text)
    CAN2_SCE_IRQHandler                      0x080001f3   Thumb Code     0  startup_stm32f446xx.o(.text)
    CAN2_TX_IRQHandler                       0x080001f3   Thumb Code     0  startup_stm32f446xx.o(.text)
    CEC_IRQHandler                           0x080001f3   Thumb Code     0  startup_stm32f446xx.o(.text)
    DCMI_IRQHandler                          0x080001f3   Thumb Code     0  startup_stm32f446xx.o(.text)
    DMA1_Stream0_IRQHandler                  0x080001f3   Thumb Code     0  startup_stm32f446xx.o(.text)
    DMA1_Stream1_IRQHandler                  0x080001f3   Thumb Code     0  startup_stm32f446xx.o(.text)
    DMA1_Stream2_IRQHandler                  0x080001f3   Thumb Code     0  startup_stm32f446xx.o(.text)
    DMA1_Stream3_IRQHandler                  0x080001f3   Thumb Code     0  startup_stm32f446xx.o(.text)
    DMA1_Stream4_IRQHandler                  0x080001f3   Thumb Code     0  startup_stm32f446xx.o(.text)
    DMA1_Stream5_IRQHandler                  0x080001f3   Thumb Code     0  startup_stm32f446xx.o(.text)
    DMA1_Stream6_IRQHandler                  0x080001f3   Thumb Code     0  startup_stm32f446xx.o(.text)
    DMA1_Stream7_IRQHandler                  0x080001f3   Thumb Code     0  startup_stm32f446xx.o(.text)
    DMA2_Stream0_IRQHandler                  0x080001f3   Thumb Code     0  startup_stm32f446xx.o(.text)
    DMA2_Stream1_IRQHandler                  0x080001f3   Thumb Code     0  startup_stm32f446xx.o(.text)
    DMA2_Stream2_IRQHandler                  0x080001f3   Thumb Code     0  startup_stm32f446xx.o(.text)
    DMA2_Stream3_IRQHandler                  0x080001f3   Thumb Code     0  startup_stm32f446xx.o(.text)
    DMA2_Stream4_IRQHandler                  0x080001f3   Thumb Code     0  startup_stm32f446xx.o(.text)
    DMA2_Stream5_IRQHandler                  0x080001f3   Thumb Code     0  startup_stm32f446xx.o(.text)
    DMA2_Stream6_IRQHandler                  0x080001f3   Thumb Code     0  startup_stm32f446xx.o(.text)
    DMA2_Stream7_IRQHandler                  0x080001f3   Thumb Code     0  startup_stm32f446xx.o(.text)
    EXTI15_10_IRQHandler                     0x080001f3   Thumb Code     0  startup_stm32f446xx.o(.text)
    EXTI1_IRQHandler                         0x080001f3   Thumb Code     0  startup_stm32f446xx.o(.text)
    EXTI2_IRQHandler                         0x080001f3   Thumb Code     0  startup_stm32f446xx.o(.text)
    EXTI4_IRQHandler                         0x080001f3   Thumb Code     0  startup_stm32f446xx.o(.text)
    EXTI9_5_IRQHandler                       0x080001f3   Thumb Code     0  startup_stm32f446xx.o(.text)
    FLASH_IRQHandler                         0x080001f3   Thumb Code     0  startup_stm32f446xx.o(.text)
    FMC_IRQHandler                           0x080001f3   Thumb Code     0  startup_stm32f446xx.o(.text)
    FMPI2C1_Error_IRQHandler                 0x080001f3   Thumb Code     0  startup_stm32f446xx.o(.text)
    FMPI2C1_Event_IRQHandler                 0x080001f3   Thumb Code     0  startup_stm32f446xx.o(.text)
    FPU_IRQHandler                           0x080001f3   Thumb Code     0  startup_stm32f446xx.o(.text)
    I2C1_ER_IRQHandler                       0x080001f3   Thumb Code     0  startup_stm32f446xx.o(.text)
    I2C1_EV_IRQHandler                       0x080001f3   Thumb Code     0  startup_stm32f446xx.o(.text)
    I2C2_ER_IRQHandler                       0x080001f3   Thumb Code     0  startup_stm32f446xx.o(.text)
    I2C2_EV_IRQHandler                       0x080001f3   Thumb Code     0  startup_stm32f446xx.o(.text)
    I2C3_ER_IRQHandler                       0x080001f3   Thumb Code     0  startup_stm32f446xx.o(.text)
    I2C3_EV_IRQHandler                       0x080001f3   Thumb Code     0  startup_stm32f446xx.o(.text)
    OTG_FS_IRQHandler                        0x080001f3   Thumb Code     0  startup_stm32f446xx.o(.text)
    OTG_FS_WKUP_IRQHandler                   0x080001f3   Thumb Code     0  startup_stm32f446xx.o(.text)
    OTG_HS_EP1_IN_IRQHandler                 0x080001f3   Thumb Code     0  startup_stm32f446xx.o(.text)
    OTG_HS_EP1_OUT_IRQHandler                0x080001f3   Thumb Code     0  startup_stm32f446xx.o(.text)
    OTG_HS_IRQHandler                        0x080001f3   Thumb Code     0  startup_stm32f446xx.o(.text)
    OTG_HS_WKUP_IRQHandler                   0x080001f3   Thumb Code     0  startup_stm32f446xx.o(.text)
    PVD_IRQHandler                           0x080001f3   Thumb Code     0  startup_stm32f446xx.o(.text)
    QuadSPI_IRQHandler                       0x080001f3   Thumb Code     0  startup_stm32f446xx.o(.text)
    RCC_IRQHandler                           0x080001f3   Thumb Code     0  startup_stm32f446xx.o(.text)
    RTC_Alarm_IRQHandler                     0x080001f3   Thumb Code     0  startup_stm32f446xx.o(.text)
    RTC_WKUP_IRQHandler                      0x080001f3   Thumb Code     0  startup_stm32f446xx.o(.text)
    SAI1_IRQHandler                          0x080001f3   Thumb Code     0  startup_stm32f446xx.o(.text)
    SAI2_IRQHandler                          0x080001f3   Thumb Code     0  startup_stm32f446xx.o(.text)
    SDIO_IRQHandler                          0x080001f3   Thumb Code     0  startup_stm32f446xx.o(.text)
    SPDIF_RX_IRQHandler                      0x080001f3   Thumb Code     0  startup_stm32f446xx.o(.text)
    SPI1_IRQHandler                          0x080001f3   Thumb Code     0  startup_stm32f446xx.o(.text)
    SPI2_IRQHandler                          0x080001f3   Thumb Code     0  startup_stm32f446xx.o(.text)
    SPI3_IRQHandler                          0x080001f3   Thumb Code     0  startup_stm32f446xx.o(.text)
    SPI4_IRQHandler                          0x080001f3   Thumb Code     0  startup_stm32f446xx.o(.text)
    TAMP_STAMP_IRQHandler                    0x080001f3   Thumb Code     0  startup_stm32f446xx.o(.text)
    TIM1_BRK_TIM9_IRQHandler                 0x080001f3   Thumb Code     0  startup_stm32f446xx.o(.text)
    TIM1_CC_IRQHandler                       0x080001f3   Thumb Code     0  startup_stm32f446xx.o(.text)
    TIM1_TRG_COM_TIM11_IRQHandler            0x080001f3   Thumb Code     0  startup_stm32f446xx.o(.text)
    TIM1_UP_TIM10_IRQHandler                 0x080001f3   Thumb Code     0  startup_stm32f446xx.o(.text)
    TIM3_IRQHandler                          0x080001f3   Thumb Code     0  startup_stm32f446xx.o(.text)
    TIM4_IRQHandler                          0x080001f3   Thumb Code     0  startup_stm32f446xx.o(.text)
    TIM5_IRQHandler                          0x080001f3   Thumb Code     0  startup_stm32f446xx.o(.text)
    TIM6_DAC_IRQHandler                      0x080001f3   Thumb Code     0  startup_stm32f446xx.o(.text)
    TIM7_IRQHandler                          0x080001f3   Thumb Code     0  startup_stm32f446xx.o(.text)
    TIM8_BRK_TIM12_IRQHandler                0x080001f3   Thumb Code     0  startup_stm32f446xx.o(.text)
    TIM8_CC_IRQHandler                       0x080001f3   Thumb Code     0  startup_stm32f446xx.o(.text)
    TIM8_TRG_COM_TIM14_IRQHandler            0x080001f3   Thumb Code     0  startup_stm32f446xx.o(.text)
    TIM8_UP_TIM13_IRQHandler                 0x080001f3   Thumb Code     0  startup_stm32f446xx.o(.text)
    UART4_IRQHandler                         0x080001f3   Thumb Code     0  startup_stm32f446xx.o(.text)
    UART5_IRQHandler                         0x080001f3   Thumb Code     0  startup_stm32f446xx.o(.text)
    USART1_IRQHandler                        0x080001f3   Thumb Code     0  startup_stm32f446xx.o(.text)
    USART2_IRQHandler                        0x080001f3   Thumb Code     0  startup_stm32f446xx.o(.text)
    USART3_IRQHandler                        0x080001f3   Thumb Code     0  startup_stm32f446xx.o(.text)
    USART6_IRQHandler                        0x080001f3   Thumb Code     0  startup_stm32f446xx.o(.text)
    WWDG_IRQHandler                          0x080001f3   Thumb Code     0  startup_stm32f446xx.o(.text)
    __aeabi_uldivmod                         0x080001fd   Thumb Code    98  uldiv.o(.text)
    __scatterload                            0x08000261   Thumb Code    28  init.o(.text)
    __scatterload_rt2                        0x08000261   Thumb Code     0  init.o(.text)
    __aeabi_llsl                             0x08000285   Thumb Code    30  llshl.o(.text)
    _ll_shift_l                              0x08000285   Thumb Code     0  llshl.o(.text)
    __aeabi_llsr                             0x080002a3   Thumb Code    32  llushr.o(.text)
    _ll_ushift_r                             0x080002a3   Thumb Code     0  llushr.o(.text)
    BusFault_Handler                         0x080002c3   Thumb Code     2  stm32f4xx_it_1.o(i.BusFault_Handler)
    CAN1_Config                              0x080002c5   Thumb Code   170  can.o(i.CAN1_Config)
    CAN_DeInit                               0x0800037d   Thumb Code    38  stm32f4xx_can.o(i.CAN_DeInit)
    CAN_FilterInit                           0x080003a9   Thumb Code   194  stm32f4xx_can.o(i.CAN_FilterInit)
    CAN_GetFlagStatus                        0x08000475   Thumb Code    52  stm32f4xx_can.o(i.CAN_GetFlagStatus)
    CAN_Init                                 0x080004a9   Thumb Code   232  stm32f4xx_can.o(i.CAN_Init)
    CAN_Receive                              0x08000591   Thumb Code   142  stm32f4xx_can.o(i.CAN_Receive)
    CAN_StructInit                           0x0800061f   Thumb Code    32  stm32f4xx_can.o(i.CAN_StructInit)
    CAN_Transmit                             0x0800063f   Thumb Code   164  stm32f4xx_can.o(i.CAN_Transmit)
    DAC_Cmd                                  0x080006e5   Thumb Code    20  stm32f4xx_dac.o(i.DAC_Cmd)
    DAC_Init                                 0x080006fd   Thumb Code    36  stm32f4xx_dac.o(i.DAC_Init)
    DAC_SetChannel1Data                      0x08000725   Thumb Code    14  stm32f4xx_dac.o(i.DAC_SetChannel1Data)
    DAC_SetChannel2Data                      0x08000739   Thumb Code    14  stm32f4xx_dac.o(i.DAC_SetChannel2Data)
    DebugMon_Handler                         0x0800074d   Thumb Code     2  stm32f4xx_it_1.o(i.DebugMon_Handler)
    EXTI0_IRQHandler                         0x0800074f   Thumb Code     6  stm32f4xx_it_1.o(i.EXTI0_IRQHandler)
    EXTI3_IRQHandler                         0x08000755   Thumb Code     6  stm32f4xx_it_1.o(i.EXTI3_IRQHandler)
    EXTI_GetITStatus                         0x0800075d   Thumb Code    16  stm32f4xx_exti.o(i.EXTI_GetITStatus)
    GPIO6                                    0x08000771   Thumb Code    20  utils.o(i.GPIO6)
    GPIO7                                    0x08000789   Thumb Code    20  utils.o(i.GPIO7)
    GPIO9                                    0x080007a1   Thumb Code    20  utils.o(i.GPIO9)
    GPIO_Init                                0x080007b9   Thumb Code   120  stm32f4xx_gpio.o(i.GPIO_Init)
    GPIO_PinAFConfig                         0x08000831   Thumb Code    32  stm32f4xx_gpio.o(i.GPIO_PinAFConfig)
    GPIO_ReadInputDataBit                    0x08000851   Thumb Code    14  stm32f4xx_gpio.o(i.GPIO_ReadInputDataBit)
    GPIO_ResetBits                           0x0800085f   Thumb Code     4  stm32f4xx_gpio.o(i.GPIO_ResetBits)
    GPIO_SetBits                             0x08000863   Thumb Code     4  stm32f4xx_gpio.o(i.GPIO_SetBits)
    HardFault_Handler                        0x08000867   Thumb Code     2  stm32f4xx_it_1.o(i.HardFault_Handler)
    I2C_CheckEvent                           0x08000869   Thumb Code    24  stm32f4xx_i2c.o(i.I2C_CheckEvent)
    I2C_Cmd                                  0x08000881   Thumb Code    20  stm32f4xx_i2c.o(i.I2C_Cmd)
    I2C_GenerateSTART                        0x08000895   Thumb Code    20  stm32f4xx_i2c.o(i.I2C_GenerateSTART)
    I2C_GenerateSTOP                         0x080008a9   Thumb Code    20  stm32f4xx_i2c.o(i.I2C_GenerateSTOP)
    I2C_GetFlagStatus                        0x080008bd   Thumb Code    42  stm32f4xx_i2c.o(i.I2C_GetFlagStatus)
    I2C_Init                                 0x080008e9   Thumb Code   174  stm32f4xx_i2c.o(i.I2C_Init)
    I2C_Send7bitAddress                      0x080009a1   Thumb Code    16  stm32f4xx_i2c.o(i.I2C_Send7bitAddress)
    I2C_SendData                             0x080009b1   Thumb Code     4  stm32f4xx_i2c.o(i.I2C_SendData)
    I2C_start                                0x080009b5   Thumb Code   100  i2c.o(i.I2C_start)
    I2C_stop                                 0x08000a21   Thumb Code    18  i2c.o(i.I2C_stop)
    I2C_write                                0x08000a35   Thumb Code    24  i2c.o(i.I2C_write)
    IWDG_Enable                              0x08000a51   Thumb Code    10  stm32f4xx_iwdg.o(i.IWDG_Enable)
    IWDG_ReloadCounter                       0x08000a61   Thumb Code    10  stm32f4xx_iwdg.o(i.IWDG_ReloadCounter)
    IWDG_SetPrescaler                        0x08000a71   Thumb Code     6  stm32f4xx_iwdg.o(i.IWDG_SetPrescaler)
    IWDG_SetReload                           0x08000a7d   Thumb Code     6  stm32f4xx_iwdg.o(i.IWDG_SetReload)
    IWDG_WriteAccessCmd                      0x08000a89   Thumb Code     6  stm32f4xx_iwdg.o(i.IWDG_WriteAccessCmd)
    LED                                      0x08000a95   Thumb Code    20  utils.o(i.LED)
    LED_Setup                                0x08000aad   Thumb Code    46  utils.o(i.LED_Setup)
    MemManage_Handler                        0x08000ae1   Thumb Code     2  stm32f4xx_it_1.o(i.MemManage_Handler)
    NMI_Handler                              0x08000ae3   Thumb Code     2  stm32f4xx_it_1.o(i.NMI_Handler)
    PendSV_Handler                           0x08000ae5   Thumb Code     2  stm32f4xx_it_1.o(i.PendSV_Handler)
    RCC_AHB1PeriphClockCmd                   0x08000ae9   Thumb Code    18  stm32f4xx_rcc.o(i.RCC_AHB1PeriphClockCmd)
    RCC_APB1PeriphClockCmd                   0x08000b01   Thumb Code    18  stm32f4xx_rcc.o(i.RCC_APB1PeriphClockCmd)
    RCC_APB1PeriphResetCmd                   0x08000b19   Thumb Code    18  stm32f4xx_rcc.o(i.RCC_APB1PeriphResetCmd)
    RCC_ClearFlag                            0x08000b31   Thumb Code    12  stm32f4xx_rcc.o(i.RCC_ClearFlag)
    RCC_GetClocksFreq                        0x08000b41   Thumb Code   174  stm32f4xx_rcc.o(i.RCC_GetClocksFreq)
    RCC_GetFlagStatus                        0x08000bfd   Thumb Code    46  stm32f4xx_rcc.o(i.RCC_GetFlagStatus)
    SVC_Handler                              0x08000c31   Thumb Code     2  stm32f4xx_it_1.o(i.SVC_Handler)
    SysTick_Handler                          0x08000d05   Thumb Code     4  stm32f4xx_it_1.o(i.SysTick_Handler)
    SystemInit                               0x08000d09   Thumb Code    74  system_stm32f4xx.o(i.SystemInit)
    TIM2_IRQHandler                          0x08000d65   Thumb Code     8  stm32f4xx_it_1.o(i.TIM2_IRQHandler)
    TIM_GetITStatus                          0x08000d6d   Thumb Code    24  stm32f4xx_tim.o(i.TIM_GetITStatus)
    TimingDelay_Decrement                    0x08000d85   Thumb Code    16  utils.o(i.TimingDelay_Decrement)
    USART3_Configuration                     0x08000d99   Thumb Code   126  usart.o(i.USART3_Configuration)
    USART3_putc                              0x08000e21   Thumb Code    16  usart.o(i.USART3_putc)
    USART_Cmd                                0x08000e35   Thumb Code    20  stm32f4xx_usart.o(i.USART_Cmd)
    USART_Init                               0x08000e49   Thumb Code   164  stm32f4xx_usart.o(i.USART_Init)
    UsageFault_Handler                       0x08000ef5   Thumb Code     2  stm32f4xx_it_1.o(i.UsageFault_Handler)
    __0printf$5                              0x08000ef9   Thumb Code    22  printf5.o(i.__0printf$5)
    __1printf$5                              0x08000ef9   Thumb Code     0  printf5.o(i.__0printf$5)
    __2printf                                0x08000ef9   Thumb Code     0  printf5.o(i.__0printf$5)
    __scatterload_copy                       0x08000f19   Thumb Code    14  handlers.o(i.__scatterload_copy)
    __scatterload_null                       0x08000f27   Thumb Code     2  handlers.o(i.__scatterload_null)
    __scatterload_zeroinit                   0x08000f29   Thumb Code    14  handlers.o(i.__scatterload_zeroinit)
    dac_init                                 0x080011f9   Thumb Code   112  dac.o(i.dac_init)
    delay                                    0x0800126d   Thumb Code    16  utils.o(i.delay)
    endSetup                                 0x08001281   Thumb Code    28  utils.o(i.endSetup)
    fputc                                    0x080012bd   Thumb Code    14  retarget.o(i.fputc)
    init                                     0x080012cd   Thumb Code   308  init.o(i.init)
    initButton                               0x08001501   Thumb Code    48  utils.o(i.initButton)
    init_GPIOs                               0x08001535   Thumb Code   136  utils.o(i.init_GPIOs)
    init_I2C1                                0x080015c1   Thumb Code   132  i2c.o(i.init_I2C1)
    init_I2C3                                0x08001651   Thumb Code   168  i2c.o(i.init_I2C3)
    init_lidar                               0x08001709   Thumb Code   142  lidar.o(i.init_lidar)
    init_triggerPin                          0x08001799   Thumb Code    46  utils.o(i.init_triggerPin)
    lidar_write                              0x080017cd   Thumb Code    42  lidar.o(i.lidar_write)
    main                                     0x080017f9   Thumb Code   426  main_1.o(i.main)
    printDone                                0x08001a81   Thumb Code    20  utils.o(i.printDone)
    startSetup                               0x08001a9d   Thumb Code    34  utils.o(i.startSetup)
    trigger_pin                              0x08001ae1   Thumb Code    20  utils.o(i.trigger_pin)
    watchdogInit                             0x08001af9   Thumb Code    32  watchdog.o(i.watchdogInit)
    Region$$Table$$Base                      0x08001b18   Number         0  anon$$obj.o(Region$$Table)
    Region$$Table$$Limit                     0x08001b38   Number         0  anon$$obj.o(Region$$Table)
    i                                        0x20000010   Data           1  main_1.o(.data)
    CAN1_DATA0                               0x20000011   Data           1  main_1.o(.data)
    CAN1_DATA1                               0x20000012   Data           1  main_1.o(.data)
    CAN1_DATA2                               0x20000013   Data           1  main_1.o(.data)
    CAN1_DATA3                               0x20000014   Data           1  main_1.o(.data)
    CAN1_DATA4                               0x20000015   Data           1  main_1.o(.data)
    CAN1_DATA5                               0x20000016   Data           1  main_1.o(.data)
    CAN1_DATA6                               0x20000017   Data           1  main_1.o(.data)
    CAN1_DATA7                               0x20000018   Data           1  main_1.o(.data)
    CAN1_ID                                  0x2000001a   Data           2  main_1.o(.data)
    __stdout                                 0x20000020   Data           4  retarget.o(.data)
    TxMessage                                0x20000024   Data          20  main_1.o(.bss)
    CAN_InitStructure                        0x20000038   Data          12  can.o(.bss)
    CAN_FilterInitStructure                  0x20000044   Data          14  can.o(.bss)
    __initial_sp                             0x20000458   Data           0  startup_stm32f446xx.o(STACK)



==============================================================================

Memory Map of the image

  Image Entry point : 0x080001c5

  Load Region LR_IROM1 (Base: 0x08000000, Size: 0x00001b5c, Max: 0x00080000, ABSOLUTE)

    Execution Region ER_IROM1 (Base: 0x08000000, Size: 0x00001b38, Max: 0x00080000, ABSOLUTE)

    Base Addr    Size         Type   Attr      Idx    E Section Name        Object

    0x08000000   0x000001c4   Data   RO         5909    RESET               startup_stm32f446xx.o
    0x080001c4   0x00000000   Code   RO         6927  * .ARM.Collect$$$$00000000  mc_w.l(entry.o)
    0x080001c4   0x00000004   Code   RO         7191    .ARM.Collect$$$$00000001  mc_w.l(entry2.o)
    0x080001c8   0x00000004   Code   RO         7194    .ARM.Collect$$$$00000004  mc_w.l(entry5.o)
    0x080001cc   0x00000000   Code   RO         7196    .ARM.Collect$$$$00000008  mc_w.l(entry7b.o)
    0x080001cc   0x00000000   Code   RO         7198    .ARM.Collect$$$$0000000A  mc_w.l(entry8b.o)
    0x080001cc   0x00000008   Code   RO         7199    .ARM.Collect$$$$0000000B  mc_w.l(entry9a.o)
    0x080001d4   0x00000000   Code   RO         7201    .ARM.Collect$$$$0000000D  mc_w.l(entry10a.o)
    0x080001d4   0x00000000   Code   RO         7203    .ARM.Collect$$$$0000000F  mc_w.l(entry11a.o)
    0x080001d4   0x00000004   Code   RO         7192    .ARM.Collect$$$$00002712  mc_w.l(entry2.o)
    0x080001d8   0x00000024   Code   RO         5910    .text               startup_stm32f446xx.o
    0x080001fc   0x00000062   Code   RO         7207    .text               mc_w.l(uldiv.o)
    0x0800025e   0x00000002   PAD
    0x08000260   0x00000024   Code   RO         7227    .text               mc_w.l(init.o)
    0x08000284   0x0000001e   Code   RO         7229    .text               mc_w.l(llshl.o)
    0x080002a2   0x00000020   Code   RO         7231    .text               mc_w.l(llushr.o)
    0x080002c2   0x00000002   Code   RO         6014    i.BusFault_Handler  stm32f4xx_it_1.o
    0x080002c4   0x000000b8   Code   RO         6885    i.CAN1_Config       can.o
    0x0800037c   0x0000002c   Code   RO         3483    i.CAN_DeInit        stm32f4xx_can.o
    0x080003a8   0x000000cc   Code   RO         3485    i.CAN_FilterInit    stm32f4xx_can.o
    0x08000474   0x00000034   Code   RO         3486    i.CAN_GetFlagStatus  stm32f4xx_can.o
    0x080004a8   0x000000e8   Code   RO         3492    i.CAN_Init          stm32f4xx_can.o
    0x08000590   0x0000008e   Code   RO         3495    i.CAN_Receive       stm32f4xx_can.o
    0x0800061e   0x00000020   Code   RO         3498    i.CAN_StructInit    stm32f4xx_can.o
    0x0800063e   0x000000a4   Code   RO         3500    i.CAN_Transmit      stm32f4xx_can.o
    0x080006e2   0x00000002   PAD
    0x080006e4   0x00000018   Code   RO         3109    i.DAC_Cmd           stm32f4xx_dac.o
    0x080006fc   0x00000028   Code   RO         3117    i.DAC_Init          stm32f4xx_dac.o
    0x08000724   0x00000014   Code   RO         3118    i.DAC_SetChannel1Data  stm32f4xx_dac.o
    0x08000738   0x00000014   Code   RO         3119    i.DAC_SetChannel2Data  stm32f4xx_dac.o
    0x0800074c   0x00000002   Code   RO         6015    i.DebugMon_Handler  stm32f4xx_it_1.o
    0x0800074e   0x00000006   Code   RO         6016    i.EXTI0_IRQHandler  stm32f4xx_it_1.o
    0x08000754   0x00000006   Code   RO         6018    i.EXTI3_IRQHandler  stm32f4xx_it_1.o
    0x0800075a   0x00000002   PAD
    0x0800075c   0x00000014   Code   RO         1750    i.EXTI_GetITStatus  stm32f4xx_exti.o
    0x08000770   0x00000018   Code   RO         6245    i.GPIO6             utils.o
    0x08000788   0x00000018   Code   RO         6246    i.GPIO7             utils.o
    0x080007a0   0x00000018   Code   RO         6247    i.GPIO9             utils.o
    0x080007b8   0x00000078   Code   RO         5162    i.GPIO_Init         stm32f4xx_gpio.o
    0x08000830   0x00000020   Code   RO         5163    i.GPIO_PinAFConfig  stm32f4xx_gpio.o
    0x08000850   0x0000000e   Code   RO         5166    i.GPIO_ReadInputDataBit  stm32f4xx_gpio.o
    0x0800085e   0x00000004   Code   RO         5169    i.GPIO_ResetBits    stm32f4xx_gpio.o
    0x08000862   0x00000004   Code   RO         5170    i.GPIO_SetBits      stm32f4xx_gpio.o
    0x08000866   0x00000002   Code   RO         6019    i.HardFault_Handler  stm32f4xx_it_1.o
    0x08000868   0x00000018   Code   RO         3653    i.I2C_CheckEvent    stm32f4xx_i2c.o
    0x08000880   0x00000014   Code   RO         3656    i.I2C_Cmd           stm32f4xx_i2c.o
    0x08000894   0x00000014   Code   RO         3664    i.I2C_GenerateSTART  stm32f4xx_i2c.o
    0x080008a8   0x00000014   Code   RO         3665    i.I2C_GenerateSTOP  stm32f4xx_i2c.o
    0x080008bc   0x0000002a   Code   RO         3666    i.I2C_GetFlagStatus  stm32f4xx_i2c.o
    0x080008e6   0x00000002   PAD
    0x080008e8   0x000000b8   Code   RO         3671    i.I2C_Init          stm32f4xx_i2c.o
    0x080009a0   0x00000010   Code   RO         3678    i.I2C_Send7bitAddress  stm32f4xx_i2c.o
    0x080009b0   0x00000004   Code   RO         3679    i.I2C_SendData      stm32f4xx_i2c.o
    0x080009b4   0x0000006c   Code   RO         6461    i.I2C_start         i2c.o
    0x08000a20   0x00000012   Code   RO         6462    i.I2C_stop          i2c.o
    0x08000a32   0x00000002   PAD
    0x08000a34   0x0000001c   Code   RO         6463    i.I2C_write         i2c.o
    0x08000a50   0x00000010   Code   RO         5437    i.IWDG_Enable       stm32f4xx_iwdg.o
    0x08000a60   0x00000010   Code   RO         5439    i.IWDG_ReloadCounter  stm32f4xx_iwdg.o
    0x08000a70   0x0000000c   Code   RO         5440    i.IWDG_SetPrescaler  stm32f4xx_iwdg.o
    0x08000a7c   0x0000000c   Code   RO         5441    i.IWDG_SetReload    stm32f4xx_iwdg.o
    0x08000a88   0x0000000c   Code   RO         5442    i.IWDG_WriteAccessCmd  stm32f4xx_iwdg.o
    0x08000a94   0x00000018   Code   RO         6248    i.LED               utils.o
    0x08000aac   0x00000034   Code   RO         6249    i.LED_Setup         utils.o
    0x08000ae0   0x00000002   Code   RO         6020    i.MemManage_Handler  stm32f4xx_it_1.o
    0x08000ae2   0x00000002   Code   RO         6021    i.NMI_Handler       stm32f4xx_it_1.o
    0x08000ae4   0x00000002   Code   RO         6022    i.PendSV_Handler    stm32f4xx_it_1.o
    0x08000ae6   0x00000002   PAD
    0x08000ae8   0x00000018   Code   RO          515    i.RCC_AHB1PeriphClockCmd  stm32f4xx_rcc.o
    0x08000b00   0x00000018   Code   RO          524    i.RCC_APB1PeriphClockCmd  stm32f4xx_rcc.o
    0x08000b18   0x00000018   Code   RO          526    i.RCC_APB1PeriphResetCmd  stm32f4xx_rcc.o
    0x08000b30   0x00000010   Code   RO          533    i.RCC_ClearFlag     stm32f4xx_rcc.o
    0x08000b40   0x000000bc   Code   RO          538    i.RCC_GetClocksFreq  stm32f4xx_rcc.o
    0x08000bfc   0x00000034   Code   RO          539    i.RCC_GetFlagStatus  stm32f4xx_rcc.o
    0x08000c30   0x00000002   Code   RO         6023    i.SVC_Handler       stm32f4xx_it_1.o
    0x08000c32   0x00000002   PAD
    0x08000c34   0x000000d0   Code   RO         5791    i.SetSysClock       system_stm32f4xx.o
    0x08000d04   0x00000004   Code   RO         6024    i.SysTick_Handler   stm32f4xx_it_1.o
    0x08000d08   0x0000005c   Code   RO         5793    i.SystemInit        system_stm32f4xx.o
    0x08000d64   0x00000008   Code   RO         6025    i.TIM2_IRQHandler   stm32f4xx_it_1.o
    0x08000d6c   0x00000018   Code   RO         4642    i.TIM_GetITStatus   stm32f4xx_tim.o
    0x08000d84   0x00000014   Code   RO         6250    i.TimingDelay_Decrement  utils.o
    0x08000d98   0x00000088   Code   RO         6125    i.USART3_Configuration  usart.o
    0x08000e20   0x00000014   Code   RO         6127    i.USART3_putc       usart.o
    0x08000e34   0x00000014   Code   RO         2763    i.USART_Cmd         stm32f4xx_usart.o
    0x08000e48   0x000000ac   Code   RO         2770    i.USART_Init        stm32f4xx_usart.o
    0x08000ef4   0x00000002   Code   RO         6026    i.UsageFault_Handler  stm32f4xx_it_1.o
    0x08000ef6   0x00000002   PAD
    0x08000ef8   0x00000020   Code   RO         7063    i.__0printf$5       mc_w.l(printf5.o)
    0x08000f18   0x0000000e   Code   RO         7239    i.__scatterload_copy  mc_w.l(handlers.o)
    0x08000f26   0x00000002   Code   RO         7240    i.__scatterload_null  mc_w.l(handlers.o)
    0x08000f28   0x0000000e   Code   RO         7241    i.__scatterload_zeroinit  mc_w.l(handlers.o)
    0x08000f36   0x00000002   PAD
    0x08000f38   0x000002c0   Code   RO         7070    i._printf_core      mc_w.l(printf5.o)
    0x080011f8   0x00000074   Code   RO         6573    i.dac_init          dac.o
    0x0800126c   0x00000014   Code   RO         6251    i.delay             utils.o
    0x08001280   0x0000003c   Code   RO         6253    i.endSetup          utils.o
    0x080012bc   0x0000000e   Code   RO         6823    i.fputc             retarget.o
    0x080012ca   0x00000002   PAD
    0x080012cc   0x00000234   Code   RO         6627    i.init              init.o
    0x08001500   0x00000034   Code   RO         6254    i.initButton        utils.o
    0x08001534   0x0000008c   Code   RO         6255    i.init_GPIOs        utils.o
    0x080015c0   0x00000090   Code   RO         6464    i.init_I2C1         i2c.o
    0x08001650   0x000000b8   Code   RO         6466    i.init_I2C3         i2c.o
    0x08001708   0x0000008e   Code   RO         6531    i.init_lidar        lidar.o
    0x08001796   0x00000002   PAD
    0x08001798   0x00000034   Code   RO         6259    i.init_triggerPin   utils.o
    0x080017cc   0x0000002a   Code   RO         6533    i.lidar_write       lidar.o
    0x080017f6   0x00000002   PAD
    0x080017f8   0x00000288   Code   RO         5918    i.main              main_1.o
    0x08001a80   0x0000001c   Code   RO         6261    i.printDone         utils.o
    0x08001a9c   0x00000044   Code   RO         6262    i.startSetup        utils.o
    0x08001ae0   0x00000018   Code   RO         6263    i.trigger_pin       utils.o
    0x08001af8   0x00000020   Code   RO         6655    i.watchdogInit      watchdog.o
    0x08001b18   0x00000020   Data   RO         7237    Region$$Table       anon$$obj.o


    Execution Region RW_IRAM1 (Base: 0x20000000, Size: 0x00000458, Max: 0x00020000, ABSOLUTE)

    Base Addr    Size         Type   Attr      Idx    E Section Name        Object

    0x20000000   0x00000010   Data   RW          571    .data               stm32f4xx_rcc.o
    0x20000010   0x0000000c   Data   RW         5920    .data               main_1.o
    0x2000001c   0x00000004   Data   RW         6264    .data               utils.o
    0x20000020   0x00000004   Data   RW         6824    .data               retarget.o
    0x20000024   0x00000014   Zero   RW         5919    .bss                main_1.o
    0x20000038   0x0000001a   Zero   RW         6887    .bss                can.o
    0x20000052   0x00000006   PAD
    0x20000058   0x00000400   Zero   RW         5907    STACK               startup_stm32f446xx.o


==============================================================================

Image component sizes


      Code (inc. data)   RO Data    RW Data    ZI Data      Debug   Object Name

       184         14          0          0         26       1118   can.o
       116          4          0          0          0        691   dac.o
       482         40          0          0          0       4059   i2c.o
       564        256          0          0          0      27314   init.o
       184          0          0          0          0       1827   lidar.o
       648        222          0         12         20     262613   main_1.o
        14          0          0          4          0       2700   retarget.o
        36          8        452          0       1024       1036   startup_stm32f446xx.o
       870         16          0          0          0      16047   stm32f4xx_can.o
       104         20          0          0          0       8917   stm32f4xx_dac.o
         0          0          0          0          0     275032   stm32f4xx_dcmi.o
        20          4          0          0          0        791   stm32f4xx_exti.o
       174          0          0          0          0      11283   stm32f4xx_gpio.o
       330         10          0          0          0      15498   stm32f4xx_i2c.o
        40          0          0          0          0       6550   stm32f4xx_it_1.o
        68         30          0          0          0       3390   stm32f4xx_iwdg.o
       328         42          0         16          0      25331   stm32f4xx_rcc.o
        24          0          0          0          0      22665   stm32f4xx_tim.o
       192          8          0          0          0       8941   stm32f4xx_usart.o
       300         36          0          0          0      45709   system_stm32f4xx.o
       156         14          0          0          0       1317   usart.o
       612        122          0          4          0       8862   utils.o
        32          0          0          0          0        583   watchdog.o

    ----------------------------------------------------------------------
      5498        846        484         36       1076     752274   Object Totals
         0          0         32          0          0          0   (incl. Generated)
        20          0          0          0          6          0   (incl. Padding)

    ----------------------------------------------------------------------

      Code (inc. data)   RO Data    RW Data    ZI Data      Debug   Library Member Name

         0          0          0          0          0          0   entry.o
         0          0          0          0          0          0   entry10a.o
         0          0          0          0          0          0   entry11a.o
         8          4          0          0          0          0   entry2.o
         4          0          0          0          0          0   entry5.o
         0          0          0          0          0          0   entry7b.o
         0          0          0          0          0          0   entry8b.o
         8          4          0          0          0          0   entry9a.o
        30          0          0          0          0          0   handlers.o
        36          8          0          0          0         68   init.o
        30          0          0          0          0         68   llshl.o
        32          0          0          0          0         68   llushr.o
       736         56          0          0          0        184   printf5.o
        98          0          0          0          0         92   uldiv.o

    ----------------------------------------------------------------------
       986         72          0          0          0        480   Library Totals
         4          0          0          0          0          0   (incl. Padding)

    ----------------------------------------------------------------------

      Code (inc. data)   RO Data    RW Data    ZI Data      Debug   Library Name

       982         72          0          0          0        480   mc_w.l

    ----------------------------------------------------------------------
       986         72          0          0          0        480   Library Totals

    ----------------------------------------------------------------------

==============================================================================


      Code (inc. data)   RO Data    RW Data    ZI Data      Debug   

      6484        918        484         36       1076     745302   Grand Totals
      6484        918        484         36       1076     745302   ELF Image Totals
      6484        918        484         36          0          0   ROM Totals

==============================================================================

    Total RO  Size (Code + RO Data)                 6968 (   6.80kB)
    Total RW  Size (RW Data + ZI Data)              1112 (   1.09kB)
    Total ROM Size (Code + RO Data + RW Data)       7004 (   6.84kB)

==============================================================================

