Component: ARM Compiler 5.06 (build 20) Tool: armlink [4d35a3]

==============================================================================

Section Cross References

    startup_stm32f303xe.o(RESET) refers to startup_stm32f303xe.o(STACK) for __initial_sp
    startup_stm32f303xe.o(RESET) refers to startup_stm32f303xe.o(.text) for Reset_Handler
    startup_stm32f303xe.o(RESET) refers to stm32f30x_it.o(i.NMI_Handler) for NMI_Handler
    startup_stm32f303xe.o(RESET) refers to stm32f30x_it.o(i.HardFault_Handler) for HardFault_Handler
    startup_stm32f303xe.o(RESET) refers to stm32f30x_it.o(i.MemManage_Handler) for MemManage_Handler
    startup_stm32f303xe.o(RESET) refers to stm32f30x_it.o(i.BusFault_Handler) for BusFault_Handler
    startup_stm32f303xe.o(RESET) refers to stm32f30x_it.o(i.UsageFault_Handler) for UsageFault_Handler
    startup_stm32f303xe.o(RESET) refers to stm32f30x_it.o(i.SVC_Handler) for SVC_Handler
    startup_stm32f303xe.o(RESET) refers to stm32f30x_it.o(i.DebugMon_Handler) for DebugMon_Handler
    startup_stm32f303xe.o(RESET) refers to stm32f30x_it.o(i.PendSV_Handler) for PendSV_Handler
    startup_stm32f303xe.o(RESET) refers to stm32f30x_it.o(i.SysTick_Handler) for SysTick_Handler
    startup_stm32f303xe.o(RESET) refers to adc.o(i.DMA1_Channel1_IRQHandler) for DMA1_Channel1_IRQHandler
    startup_stm32f303xe.o(RESET) refers to can.o(i.USB_LP_CAN1_RX0_IRQHandler) for USB_LP_CAN1_RX0_IRQHandler
    startup_stm32f303xe.o(.text) refers to system_stm32f30x.o(i.SystemInit) for SystemInit
    startup_stm32f303xe.o(.text) refers to entry.o(.ARM.Collect$$$$00000000) for __main
    stm32f30x_fmc.o(.ARM.exidx) refers to stm32f30x_fmc.o(i.FMC_NORSRAMDeInit) for i.FMC_NORSRAMDeInit
    stm32f30x_fmc.o(.ARM.exidx) refers to stm32f30x_fmc.o(i.FMC_NORSRAMInit) for i.FMC_NORSRAMInit
    stm32f30x_fmc.o(.ARM.exidx) refers to stm32f30x_fmc.o(i.FMC_NORSRAMStructInit) for i.FMC_NORSRAMStructInit
==============================================================================

Removing Unused input sections from the image.

    Removing stm32f30x_fmc.o(.rev16_text), (4 bytes).
    Removing stm32f30x_fmc.o(.revsh_text), (4 bytes).
    Removing stm32f30x_fmc.o(.rrx_text), (6 bytes).
    Removing stm32f30x_fmc.o(i.FMC_ClearFlag), (64 bytes).
    Removing stm32f30x_fmc.o(i.FMC_ClearITPendingBit), (72 bytes).
    Removing stm32f30x_fmc.o(i.FMC_GetECC), (28 bytes).
    Removing stm32f30x_fmc.o(i.FMC_GetFlagStatus), (60 bytes).
    Removing stm32f30x_fmc.o(i.FMC_GetITStatus), (68 bytes).
    Removing stm32f30x_fmc.o(i.FMC_ITConfig), (128 bytes).
    Removing stm32f30x_fmc.o(i.FMC_NANDCmd), (92 bytes).
    Removing stm32f30x_fmc.o(i.FMC_NANDDeInit), (68 bytes).
    Removing stm32f30x_fmc.o(i.FMC_NANDECCCmd), (92 bytes).
    Removing stm32f30x_fmc.o(i.FMC_NANDInit), (136 bytes).
    Removing stm32f30x_fmc.o(i.FMC_NANDStructInit), (58 bytes).
    Removing stm32f30x_fmc.o(i.FMC_NORSRAMCmd), (52 bytes).
    Removing stm32f30x_fmc.o(i.FMC_NORSRAMDeInit), (54 bytes).
    Removing stm32f30x_fmc.o(i.FMC_NORSRAMInit), (238 bytes).
    Removing stm32f30x_fmc.o(i.FMC_NORSRAMStructInit), (122 bytes).
==============================================================================

Image Symbol Table

    Local Symbols

    Symbol Name                              Value     Ov Type        Size  Object(Section)

    ../../../clib/unwind_pr.c                0x00000000   Number         0  unwind_prcommon.o ABSOLUTE
    ../../../clib/unwind_pr.c                0x00000000   Number         0  unwind_pr0.o ABSOLUTE
    ../../../clib/unwinder.c                 0x00000000   Number         0  unwinder.o ABSOLUTE
    ../../../clib/unwinder.c                 0x00000000   Number         0  unwind_activity.o ABSOLUTE
    ../../../clib/unwinder.c                 0x00000000   Number         0  unwind_activity.o ABSOLUTE
    ../../../clib/unwinder.c                 0x00000000   Number         0  unwinder.o ABSOLUTE
    ../../../edgfe/lib_src/arm_exceptions.c  0x00000000   Number         0  arm_exceptions_support.o ABSOLUTE
    ../../../edgfe/lib_src/arm_exceptions.c  0x00000000   Number         0  arm_exceptions_mem.o ABSOLUTE
    ../../../edgfe/lib_src/arm_exceptions.c  0x00000000   Number         0  arm_exceptions_callterm.o ABSOLUTE
    ../../../edgfe/lib_src/arm_exceptions.c  0x00000000   Number         0  arm_exceptions_globs.o ABSOLUTE
    ../../../edgfe/lib_src/arm_exceptions.c  0x00000000   Number         0  arm_exceptions_terminate.o ABSOLUTE
    ../../../edgfe/lib_src/arm_noexceptions.c 0x00000000   Number         0  arm_newhandler_noexceptions.o ABSOLUTE
    ../../../edgfe/lib_src/arm_noexceptions.c 0x00000000   Number         0  arm_begincatch_noexceptions.o ABSOLUTE
    ../../../edgfe/lib_src/arm_noexceptions.c 0x00000000   Number         0  arm_callunex_noexceptions.o ABSOLUTE
    ../../../edgfe/lib_src/bad_alloc.c       0x00000000   Number         0  bad_alloc_dtor.o ABSOLUTE
    ../../../edgfe/lib_src/bad_alloc.c       0x00000000   Number         0  bad_alloc_what.o ABSOLUTE
    ../../../edgfe/lib_src/delete.c          0x00000000   Number         0  delete.o ABSOLUTE
    ../../../edgfe/lib_src/exception.c       0x00000000   Number         0  exception_what.o ABSOLUTE
    ../../../edgfe/lib_src/exception.c       0x00000000   Number         0  exception_dtor.o ABSOLUTE
    ../../../edgfe/lib_src/new.c             0x00000000   Number         0  new.o ABSOLUTE
    ../../../edgfe/lib_src/typeinfo.c        0x00000000   Number         0  type_info_dtor.o ABSOLUTE
    ../../../edgfe/lib_src/typeinfo.c        0x00000000   Number         0  lib_rtti_impl.o ABSOLUTE
    ../clib/microlib/cpp/cpp_init.c          0x00000000   Number         0  cpp_init.o ABSOLUTE
    ../clib/microlib/cpp/cpp_init.c          0x00000000   Number         0  cpp_init.o ABSOLUTE
    ../clib/microlib/cpp/cpp_memory.c        0x00000000   Number         0  cpp_memory.o ABSOLUTE
    ../clib/microlib/division.c              0x00000000   Number         0  uldiv.o ABSOLUTE
    ../clib/microlib/division.c              0x00000000   Number         0  uidiv.o ABSOLUTE
    ../clib/microlib/init/entry.s            0x00000000   Number         0  entry7a.o ABSOLUTE
    ../clib/microlib/init/entry.s            0x00000000   Number         0  entry9a.o ABSOLUTE
    ../clib/microlib/init/entry.s            0x00000000   Number         0  entry11a.o ABSOLUTE
    ../clib/microlib/init/entry.s            0x00000000   Number         0  entry5.o ABSOLUTE
    ../clib/microlib/init/entry.s            0x00000000   Number         0  entry10b.o ABSOLUTE
    ../clib/microlib/init/entry.s            0x00000000   Number         0  entry8b.o ABSOLUTE
    ../clib/microlib/init/entry.s            0x00000000   Number         0  entry7b.o ABSOLUTE
    ../clib/microlib/init/entry.s            0x00000000   Number         0  entry2.o ABSOLUTE
    ../clib/microlib/init/entry.s            0x00000000   Number         0  entry9b.o ABSOLUTE
    ../clib/microlib/init/entry.s            0x00000000   Number         0  entry8a.o ABSOLUTE
    ../clib/microlib/init/entry.s            0x00000000   Number         0  entry11b.o ABSOLUTE
    ../clib/microlib/init/entry.s            0x00000000   Number         0  entry10a.o ABSOLUTE
    ../clib/microlib/init/entry.s            0x00000000   Number         0  entry.o ABSOLUTE
    ../clib/microlib/longlong.c              0x00000000   Number         0  llshl.o ABSOLUTE
    ../clib/microlib/longlong.c              0x00000000   Number         0  llsshr.o ABSOLUTE
    ../clib/microlib/longlong.c              0x00000000   Number         0  llushr.o ABSOLUTE
    ../clib/microlib/malloc/malloc.c         0x00000000   Number         0  mallocr.o ABSOLUTE
    ../clib/microlib/malloc/malloc.c         0x00000000   Number         0  mallocra.o ABSOLUTE
    ../clib/microlib/malloc/malloc.c         0x00000000   Number         0  malloca.o ABSOLUTE
    ../clib/microlib/malloc/malloc.c         0x00000000   Number         0  malloc.o ABSOLUTE
    ../clib/microlib/malloc/mvars.c          0x00000000   Number         0  mvars.o ABSOLUTE
    ../clib/microlib/printf/printf.c         0x00000000   Number         0  printf7.o ABSOLUTE
    ../clib/microlib/printf/printf.c         0x00000000   Number         0  printfa.o ABSOLUTE
    ../clib/microlib/printf/printf.c         0x00000000   Number         0  printf8.o ABSOLUTE
    ../clib/microlib/printf/printf.c         0x00000000   Number         0  printf6.o ABSOLUTE
    ../clib/microlib/printf/printf.c         0x00000000   Number         0  printf5.o ABSOLUTE
    ../clib/microlib/printf/printf.c         0x00000000   Number         0  printf4.o ABSOLUTE
    ../clib/microlib/printf/printf.c         0x00000000   Number         0  printf3.o ABSOLUTE
    ../clib/microlib/printf/printf.c         0x00000000   Number         0  printf2.o ABSOLUTE
    ../clib/microlib/printf/printf.c         0x00000000   Number         0  printf1.o ABSOLUTE
    ../clib/microlib/printf/printf.c         0x00000000   Number         0  printf0.o ABSOLUTE
    ../clib/microlib/printf/printf.c         0x00000000   Number         0  printfb.o ABSOLUTE
    ../clib/microlib/printf/stubs.s          0x00000000   Number         0  stubs.o ABSOLUTE
    ../clib/microlib/stdio/fputc.c           0x00000000   Number         0  fputc.o ABSOLUTE
    ../clib/microlib/stdio/semi.s            0x00000000   Number         0  semi.o ABSOLUTE
    ../clib/microlib/stdio/streams.c         0x00000000   Number         0  stdout.o ABSOLUTE
    ../clib/microlib/stdlib/abort.c          0x00000000   Number         0  abort.o ABSOLUTE
    ../clib/microlib/stdlib/bsearch.c        0x00000000   Number         0  bsearch.o ABSOLUTE
    ../clib/microlib/string/memcpy.c         0x00000000   Number         0  memcpyb.o ABSOLUTE
    ../clib/microlib/string/memcpy.c         0x00000000   Number         0  memcpya.o ABSOLUTE
    ../clib/microlib/string/memset.c         0x00000000   Number         0  memseta.o ABSOLUTE
    ../clib/microlib/stubs.s                 0x00000000   Number         0  iusefp.o ABSOLUTE
    ../clib/microlib/stubs.s                 0x00000000   Number         0  iusesemip.o ABSOLUTE
    ../fplib/microlib/f2d.c                  0x00000000   Number         0  f2d.o ABSOLUTE
    ../fplib/microlib/fpadd.c                0x00000000   Number         0  dadd.o ABSOLUTE
    ../fplib/microlib/fpdiv.c                0x00000000   Number         0  ddiv.o ABSOLUTE
    ../fplib/microlib/fpepilogue.c           0x00000000   Number         0  depilogue.o ABSOLUTE
    ../fplib/microlib/fpfix.c                0x00000000   Number         0  dfixul.o ABSOLUTE
    ../fplib/microlib/fpmul.c                0x00000000   Number         0  dmul.o ABSOLUTE
    ..\..\..\Libraries\STM32F30x_StdPeriph_Driver\src\stm32f30x_adc.c 0x00000000   Number         0  stm32f30x_adc.o ABSOLUTE
    ..\..\..\Libraries\STM32F30x_StdPeriph_Driver\src\stm32f30x_can.c 0x00000000   Number         0  stm32f30x_can.o ABSOLUTE
    ..\..\..\Libraries\STM32F30x_StdPeriph_Driver\src\stm32f30x_comp.c 0x00000000   Number         0  stm32f30x_comp.o ABSOLUTE
    ..\..\..\Libraries\STM32F30x_StdPeriph_Driver\src\stm32f30x_crc.c 0x00000000   Number         0  stm32f30x_crc.o ABSOLUTE
    ..\..\..\Libraries\STM32F30x_StdPeriph_Driver\src\stm32f30x_dac.c 0x00000000   Number         0  stm32f30x_dac.o ABSOLUTE
    ..\..\..\Libraries\STM32F30x_StdPeriph_Driver\src\stm32f30x_dbgmcu.c 0x00000000   Number         0  stm32f30x_dbgmcu.o ABSOLUTE
    ..\..\..\Libraries\STM32F30x_StdPeriph_Driver\src\stm32f30x_dma.c 0x00000000   Number         0  stm32f30x_dma.o ABSOLUTE
    ..\..\..\Libraries\STM32F30x_StdPeriph_Driver\src\stm32f30x_exti.c 0x00000000   Number         0  stm32f30x_exti.o ABSOLUTE
    ..\..\..\Libraries\STM32F30x_StdPeriph_Driver\src\stm32f30x_flash.c 0x00000000   Number         0  stm32f30x_flash.o ABSOLUTE
    ..\..\..\Libraries\STM32F30x_StdPeriph_Driver\src\stm32f30x_fmc.c 0x00000000   Number         0  stm32f30x_fmc.o ABSOLUTE
    ..\..\..\Libraries\STM32F30x_StdPeriph_Driver\src\stm32f30x_gpio.c 0x00000000   Number         0  stm32f30x_gpio.o ABSOLUTE
    ..\..\..\Libraries\STM32F30x_StdPeriph_Driver\src\stm32f30x_i2c.c 0x00000000   Number         0  stm32f30x_i2c.o ABSOLUTE
    ..\..\..\Libraries\STM32F30x_StdPeriph_Driver\src\stm32f30x_iwdg.c 0x00000000   Number         0  stm32f30x_iwdg.o ABSOLUTE
    ..\..\..\Libraries\STM32F30x_StdPeriph_Driver\src\stm32f30x_misc.c 0x00000000   Number         0  stm32f30x_misc.o ABSOLUTE
    ..\..\..\Libraries\STM32F30x_StdPeriph_Driver\src\stm32f30x_opamp.c 0x00000000   Number         0  stm32f30x_opamp.o ABSOLUTE
    ..\..\..\Libraries\STM32F30x_StdPeriph_Driver\src\stm32f30x_pwr.c 0x00000000   Number         0  stm32f30x_pwr.o ABSOLUTE
    ..\..\..\Libraries\STM32F30x_StdPeriph_Driver\src\stm32f30x_rcc.c 0x00000000   Number         0  stm32f30x_rcc.o ABSOLUTE
    ..\..\..\Libraries\STM32F30x_StdPeriph_Driver\src\stm32f30x_rtc.c 0x00000000   Number         0  stm32f30x_rtc.o ABSOLUTE
    ..\..\..\Libraries\STM32F30x_StdPeriph_Driver\src\stm32f30x_spi.c 0x00000000   Number         0  stm32f30x_spi.o ABSOLUTE
    ..\..\..\Libraries\STM32F30x_StdPeriph_Driver\src\stm32f30x_syscfg.c 0x00000000   Number         0  stm32f30x_syscfg.o ABSOLUTE
    ..\..\..\Libraries\STM32F30x_StdPeriph_Driver\src\stm32f30x_tim.c 0x00000000   Number         0  stm32f30x_tim.o ABSOLUTE
    ..\..\..\Libraries\STM32F30x_StdPeriph_Driver\src\stm32f30x_usart.c 0x00000000   Number         0  stm32f30x_usart.o ABSOLUTE
    ..\..\..\Libraries\STM32F30x_StdPeriph_Driver\src\stm32f30x_wwdg.c 0x00000000   Number         0  stm32f30x_wwdg.o ABSOLUTE
    ..\\..\\..\\Libraries\\STM32F30x_StdPeriph_Driver\\src\\stm32f30x_adc.c 0x00000000   Number         0  stm32f30x_adc.o ABSOLUTE
    ..\\..\\..\\Libraries\\STM32F30x_StdPeriph_Driver\\src\\stm32f30x_can.c 0x00000000   Number         0  stm32f30x_can.o ABSOLUTE
    ..\\..\\..\\Libraries\\STM32F30x_StdPeriph_Driver\\src\\stm32f30x_comp.c 0x00000000   Number         0  stm32f30x_comp.o ABSOLUTE
    ..\\..\\..\\Libraries\\STM32F30x_StdPeriph_Driver\\src\\stm32f30x_crc.c 0x00000000   Number         0  stm32f30x_crc.o ABSOLUTE
    ..\\..\\..\\Libraries\\STM32F30x_StdPeriph_Driver\\src\\stm32f30x_dac.c 0x00000000   Number         0  stm32f30x_dac.o ABSOLUTE
    ..\\..\\..\\Libraries\\STM32F30x_StdPeriph_Driver\\src\\stm32f30x_dbgmcu.c 0x00000000   Number         0  stm32f30x_dbgmcu.o ABSOLUTE
    ..\\..\\..\\Libraries\\STM32F30x_StdPeriph_Driver\\src\\stm32f30x_dma.c 0x00000000   Number         0  stm32f30x_dma.o ABSOLUTE
    ..\\..\\..\\Libraries\\STM32F30x_StdPeriph_Driver\\src\\stm32f30x_exti.c 0x00000000   Number         0  stm32f30x_exti.o ABSOLUTE
    ..\\..\\..\\Libraries\\STM32F30x_StdPeriph_Driver\\src\\stm32f30x_flash.c 0x00000000   Number         0  stm32f30x_flash.o ABSOLUTE
    ..\\..\\..\\Libraries\\STM32F30x_StdPeriph_Driver\\src\\stm32f30x_fmc.c 0x00000000   Number         0  stm32f30x_fmc.o ABSOLUTE
    ..\\..\\..\\Libraries\\STM32F30x_StdPeriph_Driver\\src\\stm32f30x_gpio.c 0x00000000   Number         0  stm32f30x_gpio.o ABSOLUTE
    ..\\..\\..\\Libraries\\STM32F30x_StdPeriph_Driver\\src\\stm32f30x_i2c.c 0x00000000   Number         0  stm32f30x_i2c.o ABSOLUTE
    ..\\..\\..\\Libraries\\STM32F30x_StdPeriph_Driver\\src\\stm32f30x_iwdg.c 0x00000000   Number         0  stm32f30x_iwdg.o ABSOLUTE
    ..\\..\\..\\Libraries\\STM32F30x_StdPeriph_Driver\\src\\stm32f30x_misc.c 0x00000000   Number         0  stm32f30x_misc.o ABSOLUTE
    ..\\..\\..\\Libraries\\STM32F30x_StdPeriph_Driver\\src\\stm32f30x_opamp.c 0x00000000   Number         0  stm32f30x_opamp.o ABSOLUTE
    ..\\..\\..\\Libraries\\STM32F30x_StdPeriph_Driver\\src\\stm32f30x_pwr.c 0x00000000   Number         0  stm32f30x_pwr.o ABSOLUTE
    ..\\..\\..\\Libraries\\STM32F30x_StdPeriph_Driver\\src\\stm32f30x_rcc.c 0x00000000   Number         0  stm32f30x_rcc.o ABSOLUTE
    ..\\..\\..\\Libraries\\STM32F30x_StdPeriph_Driver\\src\\stm32f30x_rtc.c 0x00000000   Number         0  stm32f30x_rtc.o ABSOLUTE
    ..\\..\\..\\Libraries\\STM32F30x_StdPeriph_Driver\\src\\stm32f30x_spi.c 0x00000000   Number         0  stm32f30x_spi.o ABSOLUTE
    ..\\..\\..\\Libraries\\STM32F30x_StdPeriph_Driver\\src\\stm32f30x_syscfg.c 0x00000000   Number         0  stm32f30x_syscfg.o ABSOLUTE
    ..\\..\\..\\Libraries\\STM32F30x_StdPeriph_Driver\\src\\stm32f30x_tim.c 0x00000000   Number         0  stm32f30x_tim.o ABSOLUTE
    ..\\..\\..\\Libraries\\STM32F30x_StdPeriph_Driver\\src\\stm32f30x_usart.c 0x00000000   Number         0  stm32f30x_usart.o ABSOLUTE
    ..\\..\\..\\Libraries\\STM32F30x_StdPeriph_Driver\\src\\stm32f30x_wwdg.c 0x00000000   Number         0  stm32f30x_wwdg.o ABSOLUTE
    ..\\adc.c                                0x00000000   Number         0  adc.o ABSOLUTE
    ..\\can.c                                0x00000000   Number         0  can.o ABSOLUTE
    ..\\controller.c                         0x00000000   Number         0  controller.o ABSOLUTE
    ..\\i2c.c                                0x00000000   Number         0  i2c.o ABSOLUTE
    ..\\led.c                                0x00000000   Number         0  led.o ABSOLUTE
    ..\\main.c                               0x00000000   Number         0  main.o ABSOLUTE
    ..\\sabertooth.c                         0x00000000   Number         0  sabertooth.o ABSOLUTE
    ..\\stm32f30x_it.c                       0x00000000   Number         0  stm32f30x_it.o ABSOLUTE
    ..\\system_stm32f30x.c                   0x00000000   Number         0  system_stm32f30x.o ABSOLUTE
    ..\\tim3.c                               0x00000000   Number         0  tim3.o ABSOLUTE
    ..\\usart.c                              0x00000000   Number         0  usart.o ABSOLUTE
    ..\\utils.c                              0x00000000   Number         0  utils.o ABSOLUTE
    ..\\vector.c                             0x00000000   Number         0  vector.o ABSOLUTE
    ..\adc.c                                 0x00000000   Number         0  adc.o ABSOLUTE
    ..\can.c                                 0x00000000   Number         0  can.o ABSOLUTE
    ..\controller.c                          0x00000000   Number         0  controller.o ABSOLUTE
    ..\eFLL\Fuzzy.cpp                        0x00000000   Number         0  fuzzy.o ABSOLUTE
    ..\eFLL\FuzzyComposition.cpp             0x00000000   Number         0  fuzzycomposition.o ABSOLUTE
    ..\eFLL\FuzzyIO.cpp                      0x00000000   Number         0  fuzzyio.o ABSOLUTE
    ..\eFLL\FuzzyInput.cpp                   0x00000000   Number         0  fuzzyinput.o ABSOLUTE
    ..\eFLL\FuzzyOutput.cpp                  0x00000000   Number         0  fuzzyoutput.o ABSOLUTE
    ..\eFLL\FuzzyRule.cpp                    0x00000000   Number         0  fuzzyrule.o ABSOLUTE
    ..\eFLL\FuzzyRuleAntecedent.cpp          0x00000000   Number         0  fuzzyruleantecedent.o ABSOLUTE
    ..\eFLL\FuzzyRuleConsequent.cpp          0x00000000   Number         0  fuzzyruleconsequent.o ABSOLUTE
    ..\eFLL\FuzzySet.cpp                     0x00000000   Number         0  fuzzyset.o ABSOLUTE
    ..\i2c.c                                 0x00000000   Number         0  i2c.o ABSOLUTE
    ..\led.c                                 0x00000000   Number         0  led.o ABSOLUTE
    ..\main.c                                0x00000000   Number         0  main.o ABSOLUTE
    ..\sabertooth.c                          0x00000000   Number         0  sabertooth.o ABSOLUTE
    ..\stm32f30x_it.c                        0x00000000   Number         0  stm32f30x_it.o ABSOLUTE
    ..\system_stm32f30x.c                    0x00000000   Number         0  system_stm32f30x.o ABSOLUTE
    ..\tim3.c                                0x00000000   Number         0  tim3.o ABSOLUTE
    ..\usart.c                               0x00000000   Number         0  usart.o ABSOLUTE
    ..\utils.c                               0x00000000   Number         0  utils.o ABSOLUTE
    ..\vector.c                              0x00000000   Number         0  vector.o ABSOLUTE
    cdrcmple.s                               0x00000000   Number         0  cdrcmple.o ABSOLUTE
    dc.s                                     0x00000000   Number         0  dc.o ABSOLUTE
    handlers.s                               0x00000000   Number         0  handlers.o ABSOLUTE
    init.s                                   0x00000000   Number         0  init.o ABSOLUTE
    startup_stm32f303xe.s                    0x00000000   Number         0  startup_stm32f303xe.o ABSOLUTE
    RESET                                    0x08000000   Section      404  startup_stm32f303xe.o(RESET)
    .ARM.Collect$$$$00000000                 0x08000194   Section        0  entry.o(.ARM.Collect$$$$00000000)
    .ARM.Collect$$$$00000001                 0x08000194   Section        4  entry2.o(.ARM.Collect$$$$00000001)
    .ARM.Collect$$$$00000004                 0x08000198   Section        4  entry5.o(.ARM.Collect$$$$00000004)
    .ARM.Collect$$$$00000008                 0x0800019c   Section        0  entry7b.o(.ARM.Collect$$$$00000008)
    .ARM.Collect$$$$00000009                 0x0800019c   Section        4  entry8a.o(.ARM.Collect$$$$00000009)
    .ARM.Collect$$$$0000000A                 0x080001a0   Section        0  entry8b.o(.ARM.Collect$$$$0000000A)
    .ARM.Collect$$$$0000000B                 0x080001a0   Section        8  entry9a.o(.ARM.Collect$$$$0000000B)
    .ARM.Collect$$$$0000000D                 0x080001a8   Section        0  entry10a.o(.ARM.Collect$$$$0000000D)
    .ARM.Collect$$$$0000000F                 0x080001a8   Section        0  entry11a.o(.ARM.Collect$$$$0000000F)
    .ARM.Collect$$$$00002712                 0x080001a8   Section        4  entry2.o(.ARM.Collect$$$$00002712)
    __lit__00000000                          0x080001a8   Data           4  entry2.o(.ARM.Collect$$$$00002712)
    .text                                    0x080001ac   Section       36  startup_stm32f303xe.o(.text)
    $v0                                      0x080001ac   Number         0  startup_stm32f303xe.o(.text)
    SPI4_IRQHandler                          0x080001c7   Thumb Code     0  startup_stm32f303xe.o(.text)
    .text                                    0x080001d0   Section        0  memcpya.o(.text)
    .text                                    0x080001f4   Section        0  memseta.o(.text)
    .text                                    0x08000218   Section        0  cpp_init.o(.text)
    .text                                    0x08000238   Section        0  f2d.o(.text)
    .text                                    0x0800025e   Section        0  arm_newhandler_noexceptions.o(.text)
    .text                                    0x08000262   Section        0  uidiv.o(.text)
    .text                                    0x0800028e   Section        0  uldiv.o(.text)
    .text                                    0x080002f0   Section        0  iusefp.o(.text)
    .text                                    0x080002f0   Section        0  cpp_memory.o(.text)
    .text                                    0x08000304   Section        0  dadd.o(.text)
    .text                                    0x08000452   Section        0  dmul.o(.text)
    .text                                    0x08000536   Section        0  ddiv.o(.text)
    .text                                    0x08000614   Section        0  dfixul.o(.text)
    .text                                    0x08000644   Section       48  cdrcmple.o(.text)
    .text                                    0x08000674   Section        0  arm_exceptions_terminate.o(.text)
    .text                                    0x08000690   Section       36  init.o(.text)
    .text                                    0x080006b4   Section        0  llshl.o(.text)
    .text                                    0x080006d2   Section        0  llushr.o(.text)
    .text                                    0x080006f2   Section        0  llsshr.o(.text)
    .text                                    0x08000716   Section        0  depilogue.o(.text)
    .text                                    0x080007d0   Section        0  arm_exceptions_globs.o(.text)
    [local to arm_exceptions_c]::__default_terminate_handler() 0x080007d1   Thumb Code     6  arm_exceptions_globs.o(.text)
    .text                                    0x08000820   Section        0  arm_exceptions_mem.o(.text)
    i.ADCInit                                0x0800085c   Section        0  adc.o(i.ADCInit)
    i.ADC_Cmd                                0x08000930   Section        0  stm32f30x_adc.o(i.ADC_Cmd)
    i.ADC_CommonInit                         0x08000948   Section        0  stm32f30x_adc.o(i.ADC_CommonInit)
    i.ADC_DMACmd                             0x080009ac   Section        0  stm32f30x_adc.o(i.ADC_DMACmd)
    i.ADC_DMAConfig                          0x080009c2   Section        0  stm32f30x_adc.o(i.ADC_DMAConfig)
    i.ADC_GetCalibrationStatus               0x080009d2   Section        0  stm32f30x_adc.o(i.ADC_GetCalibrationStatus)
    i.ADC_GetCalibrationValue                0x080009e6   Section        0  stm32f30x_adc.o(i.ADC_GetCalibrationValue)
    i.ADC_GetFlagStatus                      0x080009ee   Section        0  stm32f30x_adc.o(i.ADC_GetFlagStatus)
    i.ADC_Init                               0x08000a00   Section        0  stm32f30x_adc.o(i.ADC_Init)
    i.ADC_RegularChannelConfig               0x08000a40   Section        0  stm32f30x_adc.o(i.ADC_RegularChannelConfig)
    i.ADC_SelectCalibrationMode              0x08000b3a   Section        0  stm32f30x_adc.o(i.ADC_SelectCalibrationMode)
    i.ADC_StartCalibration                   0x08000b4a   Section        0  stm32f30x_adc.o(i.ADC_StartCalibration)
    i.ADC_StartConversion                    0x08000b54   Section        0  stm32f30x_adc.o(i.ADC_StartConversion)
    i.ADC_StructInit                         0x08000b5e   Section        0  stm32f30x_adc.o(i.ADC_StructInit)
    i.ADC_VoltageRegulatorCmd                0x08000b74   Section        0  stm32f30x_adc.o(i.ADC_VoltageRegulatorCmd)
    i.An_PWM_Pins_Init                       0x08000b94   Section        0  tim3.o(i.An_PWM_Pins_Init)
    i.BusFault_Handler                       0x08000bdc   Section        0  stm32f30x_it.o(i.BusFault_Handler)
    i.CAN1_Config                            0x08000be0   Section        0  can.o(i.CAN1_Config)
    i.CAN_ClearITPendingBit                  0x08000cf0   Section        0  stm32f30x_can.o(i.CAN_ClearITPendingBit)
    i.CAN_DeInit                             0x08000d98   Section        0  stm32f30x_can.o(i.CAN_DeInit)
    i.CAN_FilterInit                         0x08000db0   Section        0  stm32f30x_can.o(i.CAN_FilterInit)
    i.CAN_GetITStatus                        0x08000eb8   Section        0  stm32f30x_can.o(i.CAN_GetITStatus)
    i.CAN_Init                               0x08000fd8   Section        0  stm32f30x_can.o(i.CAN_Init)
    i.CAN_Receive                            0x080010fc   Section        0  stm32f30x_can.o(i.CAN_Receive)
    i.CAN_StructInit                         0x080011ec   Section        0  stm32f30x_can.o(i.CAN_StructInit)
    i.CAN_Transmit                           0x0800120c   Section        0  stm32f30x_can.o(i.CAN_Transmit)
    i.CalibrateAdc                           0x08001334   Section        0  adc.o(i.CalibrateAdc)
    i.DMA1_Channel1_IRQHandler               0x080013b0   Section        0  adc.o(i.DMA1_Channel1_IRQHandler)
    i.DMA_ClearITPendingBit                  0x08001534   Section        0  stm32f30x_dma.o(i.DMA_ClearITPendingBit)
    i.DMA_Cmd                                0x08001550   Section        0  stm32f30x_dma.o(i.DMA_Cmd)
    i.DMA_DeInit                             0x08001568   Section        0  stm32f30x_dma.o(i.DMA_DeInit)
    i.DMA_GetITStatus                        0x080016b4   Section        0  stm32f30x_dma.o(i.DMA_GetITStatus)
    i.DMA_ITConfig                           0x080016e0   Section        0  stm32f30x_dma.o(i.DMA_ITConfig)
    i.DMA_Init                               0x080016f2   Section        0  stm32f30x_dma.o(i.DMA_Init)
    i.DebugMon_Handler                       0x0800172e   Section        0  stm32f30x_it.o(i.DebugMon_Handler)
    i.GPIO_Init                              0x08001730   Section        0  stm32f30x_gpio.o(i.GPIO_Init)
    i.GPIO_PinAFConfig                       0x080017c6   Section        0  stm32f30x_gpio.o(i.GPIO_PinAFConfig)
    i.GPIO_ResetBits                         0x0800180c   Section        0  stm32f30x_gpio.o(i.GPIO_ResetBits)
    i.GPIO_SetBits                           0x08001810   Section        0  stm32f30x_gpio.o(i.GPIO_SetBits)
    i.HardFault_Handler                      0x08001814   Section        0  stm32f30x_it.o(i.HardFault_Handler)
    i.MemManage_Handler                      0x08001818   Section        0  stm32f30x_it.o(i.MemManage_Handler)
    i.NMI_Handler                            0x0800181c   Section        0  stm32f30x_it.o(i.NMI_Handler)
    i.NVIC_Init                              0x08001820   Section        0  stm32f30x_misc.o(i.NVIC_Init)
    i.PendSV_Handler                         0x08001890   Section        0  stm32f30x_it.o(i.PendSV_Handler)
    i.RCC_ADCCLKConfig                       0x08001894   Section        0  stm32f30x_rcc.o(i.RCC_ADCCLKConfig)
    i.RCC_AHBPeriphClockCmd                  0x080018c4   Section        0  stm32f30x_rcc.o(i.RCC_AHBPeriphClockCmd)
    i.RCC_APB1PeriphClockCmd                 0x080018e4   Section        0  stm32f30x_rcc.o(i.RCC_APB1PeriphClockCmd)
    i.RCC_APB1PeriphResetCmd                 0x08001904   Section        0  stm32f30x_rcc.o(i.RCC_APB1PeriphResetCmd)
    i.RCC_APB2PeriphClockCmd                 0x08001924   Section        0  stm32f30x_rcc.o(i.RCC_APB2PeriphClockCmd)
    i.RCC_GetClocksFreq                      0x08001944   Section        0  stm32f30x_rcc.o(i.RCC_GetClocksFreq)
    i.SVC_Handler                            0x08001f1c   Section        0  stm32f30x_it.o(i.SVC_Handler)
    i.SetupAdcDma                            0x08001f20   Section        0  adc.o(i.SetupAdcDma)
    i.SetupAdcGpio                           0x08001f98   Section        0  adc.o(i.SetupAdcGpio)
    i.SysTick_Handler                        0x08001fbc   Section        0  stm32f30x_it.o(i.SysTick_Handler)
    i.SystemInit                             0x08001fc4   Section        0  system_stm32f30x.o(i.SystemInit)
    i.TIM3_Config                            0x08002048   Section        0  tim3.o(i.TIM3_Config)
    i.TIM3_PWM1_setPeriod                    0x080020dc   Section        0  tim3.o(i.TIM3_PWM1_setPeriod)
    i.TIM3_PWM2_setPeriod                    0x080020e8   Section        0  tim3.o(i.TIM3_PWM2_setPeriod)
    i.TIM_ARRPreloadConfig                   0x080020f4   Section        0  stm32f30x_tim.o(i.TIM_ARRPreloadConfig)
    i.TIM_Cmd                                0x0800210c   Section        0  stm32f30x_tim.o(i.TIM_Cmd)
    i.TIM_CtrlPWMOutputs                     0x08002124   Section        0  stm32f30x_tim.o(i.TIM_CtrlPWMOutputs)
    i.TIM_OC1Init                            0x0800213c   Section        0  stm32f30x_tim.o(i.TIM_OC1Init)
    i.TIM_OC1PreloadConfig                   0x080021cc   Section        0  stm32f30x_tim.o(i.TIM_OC1PreloadConfig)
    i.TIM_OC2Init                            0x080021dc   Section        0  stm32f30x_tim.o(i.TIM_OC2Init)
    i.TIM_OC2PreloadConfig                   0x0800225c   Section        0  stm32f30x_tim.o(i.TIM_OC2PreloadConfig)
    i.TIM_SelectOutputTrigger                0x0800226e   Section        0  stm32f30x_tim.o(i.TIM_SelectOutputTrigger)
    i.TIM_TimeBaseInit                       0x08002280   Section        0  stm32f30x_tim.o(i.TIM_TimeBaseInit)
    i.TimingDelay_Decrement                  0x08002328   Section        0  utils.o(i.TimingDelay_Decrement)
    i.USART_Cmd                              0x08002340   Section        0  stm32f30x_usart.o(i.USART_Cmd)
    i.USART_Init                             0x08002358   Section        0  stm32f30x_usart.o(i.USART_Init)
    i.USART_SendData                         0x08002444   Section        0  stm32f30x_usart.o(i.USART_SendData)
    i.USB_LP_CAN1_RX0_IRQHandler             0x0800244c   Section        0  can.o(i.USB_LP_CAN1_RX0_IRQHandler)
    i.UsageFault_Handler                     0x080024a8   Section        0  stm32f30x_it.o(i.UsageFault_Handler)
    i._Z10init_USARTv                        0x080024ac   Section        0  usart.o(i._Z10init_USARTv)
    i._Z10print_datav                        0x0800252c   Section        0  main.o(i._Z10print_datav)
    i._Z11SetSysClockv                       0x08002584   Section        0  system_stm32f30x.o(i._Z11SetSysClockv)
    SetSysClock()                            0x08002585   Thumb Code   302  system_stm32f30x.o(i._Z11SetSysClockv)
    i._Z11USART1_putcc                       0x080026c0   Section        0  usart.o(i._Z11USART1_putcc)
    i._Z11USART1_putsPc                      0x080026dc   Section        0  usart.o(i._Z11USART1_putsPc)
    i._Z13CheckITStatusjj                    0x08002708   Section        0  stm32f30x_can.o(i._Z13CheckITStatusjj)
    CheckITStatus(unsigned, unsigned)        0x08002709   Thumb Code    18  stm32f30x_can.o(i._Z13CheckITStatusjj)
    i._Z14SysTick_Configj                    0x0800271c   Section        0  adc.o(i._Z14SysTick_Configj)
    SysTick_Config(unsigned)                 0x0800271d   Thumb Code    74  adc.o(i._Z14SysTick_Configj)
    i._Z15Local_LED_Setupv                   0x08002770   Section        0  led.o(i._Z15Local_LED_Setupv)
    i._Z16Status_LED_Setupv                  0x080027a4   Section        0  led.o(i._Z16Status_LED_Setupv)
    i._Z3LEDtt                               0x080027d8   Section        0  led.o(i._Z3LEDtt)
    i._Z8clr_termv                           0x080027f8   Section        0  usart.o(i._Z8clr_termv)
    i._ZN5FuzzyC1Ev                          0x08002802   Section        0  fuzzy.o(i._ZN5FuzzyC1Ev)
    i._Znwj                                  0x08002814   Section        0  new.o(i._Znwj)
    i.__0snprintf                            0x0800283c   Section        0  printfa.o(i.__0snprintf)
    i.__scatterload_copy                     0x08002864   Section       14  handlers.o(i.__scatterload_copy)
    i.__scatterload_null                     0x08002872   Section        2  handlers.o(i.__scatterload_null)
    i.__scatterload_zeroinit                 0x08002874   Section       14  handlers.o(i.__scatterload_zeroinit)
    i.__sti___6_main_c_dist                  0x08002884   Section        0  main.o(i.__sti___6_main_c_dist)
    __sti___6_main_c_dist                    0x08002885   Thumb Code    22  main.o(i.__sti___6_main_c_dist)
    i._fp_digits                             0x080028a0   Section        0  printfa.o(i._fp_digits)
    _fp_digits                               0x080028a1   Thumb Code   334  printfa.o(i._fp_digits)
    i._printf_core                           0x08002a04   Section        0  printfa.o(i._printf_core)
    _printf_core                             0x08002a05   Thumb Code  1744  printfa.o(i._printf_core)
    i._printf_post_padding                   0x080030e0   Section        0  printfa.o(i._printf_post_padding)
    _printf_post_padding                     0x080030e1   Thumb Code    36  printfa.o(i._printf_post_padding)
    i._printf_pre_padding                    0x08003104   Section        0  printfa.o(i._printf_pre_padding)
    _printf_pre_padding                      0x08003105   Thumb Code    46  printfa.o(i._printf_pre_padding)
    i._snputc                                0x08003132   Section        0  printfa.o(i._snputc)
    _snputc                                  0x08003133   Thumb Code    22  printfa.o(i._snputc)
    i.can_rx_fifo_full                       0x08003148   Section        0  can.o(i.can_rx_fifo_full)
    i.can_rx_fifo_write                      0x08003174   Section        0  can.o(i.can_rx_fifo_write)
    i.copyCanPacket                          0x080031c0   Section        0  can.o(i.copyCanPacket)
    i.delay                                  0x080031f8   Section        0  utils.o(i.delay)
    i.main                                   0x08003210   Section        0  main.o(i.main)
    i.malloc                                 0x080034d4   Section        0  malloc.o(i.malloc)
    i.printState_ADC                         0x08003540   Section        0  adc.o(i.printState_ADC)
    .conststring                             0x08003678   Section       96  main.o(.conststring)
    .init_array                              0x080036f8   Section        4  main.o(.init_array)
    .init_array                              0x080036fc   Section        0  cpp_init.o(.init_array)
    .data                                    0x20000000   Section       48  stm32f30x_rcc.o(.data)
    APBAHBPrescTable                         0x20000000   Data          16  stm32f30x_rcc.o(.data)
    ADCPrescTable                            0x20000010   Data          32  stm32f30x_rcc.o(.data)
    .data                                    0x20000030   Section       20  system_stm32f30x.o(.data)
    .data                                    0x20000044   Section       80  main.o(.data)
    .data                                    0x20000094   Section        4  utils.o(.data)
    uwTimingDelay                            0x20000094   Data           4  utils.o(.data)
    .data                                    0x20000098   Section       56  adc.o(.data)
    sampleCounter                            0x200000ce   Data           2  adc.o(.data)
    .data                                    0x200000d0   Section        4  can.o(.data)
    rx_head                                  0x200000d0   Data           2  can.o(.data)
    rx_tail                                  0x200000d2   Data           2  can.o(.data)
    .data                                    0x200000d4   Section        4  mvars.o(.data)
    .data                                    0x200000d8   Section        4  mvars.o(.data)
    .data                                    0x200000dc   Section       12  cpp_memory.o(.data)
    handler_pointer                          0x200000dc   Data           4  cpp_memory.o(.data)
    eh                                       0x200000e0   Data           4  cpp_memory.o(.data)
    eh_p                                     0x200000e4   Data           4  cpp_memory.o(.data)
    .bss                                     0x200000e8   Section      160  main.o(.bss)
    .bss                                     0x20000188   Section      100  adc.o(.bss)
    dmsg                                     0x20000188   Data         100  adc.o(.bss)
    .bss                                     0x200001ec   Section     1358  can.o(.bss)
    LastRxMsg                                0x200001ec   Data          20  can.o(.bss)
    msg                                      0x20000200   Data          30  can.o(.bss)
    rx_fifo                                  0x20000220   Data        1280  can.o(.bss)
    HEAP                                     0x20000740   Section     2048  startup_stm32f303xe.o(HEAP)
    STACK                                    0x20000f40   Section     2048  startup_stm32f303xe.o(STACK)

    Global Symbols

    Symbol Name                              Value     Ov Type        Size  Object(Section)

    BuildAttributes$$THM_ISAv4$E$P$D$K$B$S$7EM$VFPi3$EXTD16$VFPS$VFMA$PE$A:L22UL41UL21$X:L11$S22US41US21$IEEE1$IW$USESV6$~STKCKD$USESV7$~SHL$OSPACE$ROPI$EBA8$UX$MICROLIB$REQ8$PRES8$EABIv2 0x00000000   Number         0  anon$$obj.o ABSOLUTE
    __ARM_use_no_argv                        0x00000000   Number         0  main.o ABSOLUTE
    _printf_a                                0x00000000   Number         0  stubs.o ABSOLUTE
    _printf_c                                0x00000000   Number         0  stubs.o ABSOLUTE
    _printf_charcount                        0x00000000   Number         0  stubs.o ABSOLUTE
    _printf_d                                0x00000000   Number         0  stubs.o ABSOLUTE
    _printf_e                                0x00000000   Number         0  stubs.o ABSOLUTE
    _printf_f                                0x00000000   Number         0  stubs.o ABSOLUTE
    _printf_flags                            0x00000000   Number         0  stubs.o ABSOLUTE
    _printf_fp_dec                           0x00000000   Number         0  stubs.o ABSOLUTE
    _printf_fp_hex                           0x00000000   Number         0  stubs.o ABSOLUTE
    _printf_g                                0x00000000   Number         0  stubs.o ABSOLUTE
    _printf_i                                0x00000000   Number         0  stubs.o ABSOLUTE
    _printf_int_dec                          0x00000000   Number         0  stubs.o ABSOLUTE
    _printf_l                                0x00000000   Number         0  stubs.o ABSOLUTE
    _printf_lc                               0x00000000   Number         0  stubs.o ABSOLUTE
    _printf_ll                               0x00000000   Number         0  stubs.o ABSOLUTE
    _printf_lld                              0x00000000   Number         0  stubs.o ABSOLUTE
    _printf_lli                              0x00000000   Number         0  stubs.o ABSOLUTE
    _printf_llo                              0x00000000   Number         0  stubs.o ABSOLUTE
    _printf_llu                              0x00000000   Number         0  stubs.o ABSOLUTE
    _printf_llx                              0x00000000   Number         0  stubs.o ABSOLUTE
    _printf_longlong_dec                     0x00000000   Number         0  stubs.o ABSOLUTE
    _printf_longlong_hex                     0x00000000   Number         0  stubs.o ABSOLUTE
    _printf_longlong_oct                     0x00000000   Number         0  stubs.o ABSOLUTE
    _printf_ls                               0x00000000   Number         0  stubs.o ABSOLUTE
    _printf_mbtowc                           0x00000000   Number         0  stubs.o ABSOLUTE
    _printf_n                                0x00000000   Number         0  stubs.o ABSOLUTE
    _printf_o                                0x00000000   Number         0  stubs.o ABSOLUTE
    _printf_p                                0x00000000   Number         0  stubs.o ABSOLUTE
    _printf_percent                          0x00000000   Number         0  stubs.o ABSOLUTE
    _printf_pre_padding                      0x00000000   Number         0  stubs.o ABSOLUTE
    _printf_return_value                     0x00000000   Number         0  stubs.o ABSOLUTE
    _printf_s                                0x00000000   Number         0  stubs.o ABSOLUTE
    _printf_sizespec                         0x00000000   Number         0  stubs.o ABSOLUTE
    _printf_str                              0x00000000   Number         0  stubs.o ABSOLUTE
    _printf_truncate_signed                  0x00000000   Number         0  stubs.o ABSOLUTE
    _printf_truncate_unsigned                0x00000000   Number         0  stubs.o ABSOLUTE
    _printf_u                                0x00000000   Number         0  stubs.o ABSOLUTE
    _printf_wc                               0x00000000   Number         0  stubs.o ABSOLUTE
    _printf_wctomb                           0x00000000   Number         0  stubs.o ABSOLUTE
    _printf_widthprec                        0x00000000   Number         0  stubs.o ABSOLUTE
    _printf_x                                0x00000000   Number         0  stubs.o ABSOLUTE
    SHT$$ARM_EXIDX$$Base                      - Undefined Reference
    SHT$$ARM_EXIDX$$Limit                     - Undefined Reference
    __ARM::default_unexpected_handler()       - Undefined Weak Reference
    __ARM_exceptions_buffer_required          - Undefined Weak Reference
    __aeabi_unwind_cpp_pr1                    - Undefined Weak Reference
    __aeabi_unwind_cpp_pr2                    - Undefined Weak Reference
    __cxa_begin_cleanup                       - Undefined Weak Reference
    __cxa_finalize                            - Undefined Weak Reference
    __cxa_type_match                          - Undefined Weak Reference
    __decompress                              - Undefined Weak Reference
    _clock_init                               - Undefined Weak Reference
    _microlib_exit                            - Undefined Weak Reference
    __Vectors_Size                           0x00000194   Number         0  startup_stm32f303xe.o ABSOLUTE
    __Vectors                                0x08000000   Data           4  startup_stm32f303xe.o(RESET)
    __Vectors_End                            0x08000194   Data           0  startup_stm32f303xe.o(RESET)
    __main                                   0x08000195   Thumb Code     0  entry.o(.ARM.Collect$$$$00000000)
    _main_stk                                0x08000195   Thumb Code     0  entry2.o(.ARM.Collect$$$$00000001)
    _main_scatterload                        0x08000199   Thumb Code     0  entry5.o(.ARM.Collect$$$$00000004)
    __main_after_scatterload                 0x0800019d   Thumb Code     0  entry5.o(.ARM.Collect$$$$00000004)
    _main_clock                              0x0800019d   Thumb Code     0  entry7b.o(.ARM.Collect$$$$00000008)
    _main_cpp_init$empty                     0x0800019d   Thumb Code     0  entry8a.o(.ARM.Collect$$$$00000009)
    _main_cpp_init                           0x080001a1   Thumb Code     0  entry8b.o(.ARM.Collect$$$$0000000A)
    _main_init                               0x080001a1   Thumb Code     0  entry9a.o(.ARM.Collect$$$$0000000B)
    __rt_final_cpp                           0x080001a9   Thumb Code     0  entry10a.o(.ARM.Collect$$$$0000000D)
    __rt_final_exit                          0x080001a9   Thumb Code     0  entry11a.o(.ARM.Collect$$$$0000000F)
    Reset_Handler                            0x080001ad   Thumb Code     8  startup_stm32f303xe.o(.text)
    ADC1_2_IRQHandler                        0x080001c7   Thumb Code     0  startup_stm32f303xe.o(.text)
    ADC3_IRQHandler                          0x080001c7   Thumb Code     0  startup_stm32f303xe.o(.text)
    ADC4_IRQHandler                          0x080001c7   Thumb Code     0  startup_stm32f303xe.o(.text)
    CAN1_RX1_IRQHandler                      0x080001c7   Thumb Code     0  startup_stm32f303xe.o(.text)
    CAN1_SCE_IRQHandler                      0x080001c7   Thumb Code     0  startup_stm32f303xe.o(.text)
    COMP1_2_3_IRQHandler                     0x080001c7   Thumb Code     0  startup_stm32f303xe.o(.text)
    COMP4_5_6_IRQHandler                     0x080001c7   Thumb Code     0  startup_stm32f303xe.o(.text)
    COMP7_IRQHandler                         0x080001c7   Thumb Code     0  startup_stm32f303xe.o(.text)
    DMA1_Channel2_IRQHandler                 0x080001c7   Thumb Code     0  startup_stm32f303xe.o(.text)
    DMA1_Channel3_IRQHandler                 0x080001c7   Thumb Code     0  startup_stm32f303xe.o(.text)
    DMA1_Channel4_IRQHandler                 0x080001c7   Thumb Code     0  startup_stm32f303xe.o(.text)
    DMA1_Channel5_IRQHandler                 0x080001c7   Thumb Code     0  startup_stm32f303xe.o(.text)
    DMA1_Channel6_IRQHandler                 0x080001c7   Thumb Code     0  startup_stm32f303xe.o(.text)
    DMA1_Channel7_IRQHandler                 0x080001c7   Thumb Code     0  startup_stm32f303xe.o(.text)
    DMA2_Channel1_IRQHandler                 0x080001c7   Thumb Code     0  startup_stm32f303xe.o(.text)
    DMA2_Channel2_IRQHandler                 0x080001c7   Thumb Code     0  startup_stm32f303xe.o(.text)
    DMA2_Channel3_IRQHandler                 0x080001c7   Thumb Code     0  startup_stm32f303xe.o(.text)
    DMA2_Channel4_IRQHandler                 0x080001c7   Thumb Code     0  startup_stm32f303xe.o(.text)
    DMA2_Channel5_IRQHandler                 0x080001c7   Thumb Code     0  startup_stm32f303xe.o(.text)
    EXTI0_IRQHandler                         0x080001c7   Thumb Code     0  startup_stm32f303xe.o(.text)
    EXTI15_10_IRQHandler                     0x080001c7   Thumb Code     0  startup_stm32f303xe.o(.text)
    EXTI1_IRQHandler                         0x080001c7   Thumb Code     0  startup_stm32f303xe.o(.text)
    EXTI2_TS_IRQHandler                      0x080001c7   Thumb Code     0  startup_stm32f303xe.o(.text)
    EXTI3_IRQHandler                         0x080001c7   Thumb Code     0  startup_stm32f303xe.o(.text)
    EXTI4_IRQHandler                         0x080001c7   Thumb Code     0  startup_stm32f303xe.o(.text)
    EXTI9_5_IRQHandler                       0x080001c7   Thumb Code     0  startup_stm32f303xe.o(.text)
    FLASH_IRQHandler                         0x080001c7   Thumb Code     0  startup_stm32f303xe.o(.text)
    FMC_IRQHandler                           0x080001c7   Thumb Code     0  startup_stm32f303xe.o(.text)
    FPU_IRQHandler                           0x080001c7   Thumb Code     0  startup_stm32f303xe.o(.text)
    I2C1_ER_IRQHandler                       0x080001c7   Thumb Code     0  startup_stm32f303xe.o(.text)
    I2C1_EV_IRQHandler                       0x080001c7   Thumb Code     0  startup_stm32f303xe.o(.text)
    I2C2_ER_IRQHandler                       0x080001c7   Thumb Code     0  startup_stm32f303xe.o(.text)
    I2C2_EV_IRQHandler                       0x080001c7   Thumb Code     0  startup_stm32f303xe.o(.text)
    I2C3_ER_IRQHandler                       0x080001c7   Thumb Code     0  startup_stm32f303xe.o(.text)
    I2C3_EV_IRQHandler                       0x080001c7   Thumb Code     0  startup_stm32f303xe.o(.text)
    PVD_IRQHandler                           0x080001c7   Thumb Code     0  startup_stm32f303xe.o(.text)
    RCC_IRQHandler                           0x080001c7   Thumb Code     0  startup_stm32f303xe.o(.text)
    RTC_Alarm_IRQHandler                     0x080001c7   Thumb Code     0  startup_stm32f303xe.o(.text)
    RTC_WKUP_IRQHandler                      0x080001c7   Thumb Code     0  startup_stm32f303xe.o(.text)
    SPI1_IRQHandler                          0x080001c7   Thumb Code     0  startup_stm32f303xe.o(.text)
    SPI2_IRQHandler                          0x080001c7   Thumb Code     0  startup_stm32f303xe.o(.text)
    SPI3_IRQHandler                          0x080001c7   Thumb Code     0  startup_stm32f303xe.o(.text)
    TAMPER_STAMP_IRQHandler                  0x080001c7   Thumb Code     0  startup_stm32f303xe.o(.text)
    TIM1_BRK_TIM15_IRQHandler                0x080001c7   Thumb Code     0  startup_stm32f303xe.o(.text)
    TIM1_CC_IRQHandler                       0x080001c7   Thumb Code     0  startup_stm32f303xe.o(.text)
    TIM1_TRG_COM_TIM17_IRQHandler            0x080001c7   Thumb Code     0  startup_stm32f303xe.o(.text)
    TIM1_UP_TIM16_IRQHandler                 0x080001c7   Thumb Code     0  startup_stm32f303xe.o(.text)
    TIM20_BRK_IRQHandler                     0x080001c7   Thumb Code     0  startup_stm32f303xe.o(.text)
    TIM20_CC_IRQHandler                      0x080001c7   Thumb Code     0  startup_stm32f303xe.o(.text)
    TIM20_TRG_COM_IRQHandler                 0x080001c7   Thumb Code     0  startup_stm32f303xe.o(.text)
    TIM20_UP_IRQHandler                      0x080001c7   Thumb Code     0  startup_stm32f303xe.o(.text)
    TIM2_IRQHandler                          0x080001c7   Thumb Code     0  startup_stm32f303xe.o(.text)
    TIM3_IRQHandler                          0x080001c7   Thumb Code     0  startup_stm32f303xe.o(.text)
    TIM4_IRQHandler                          0x080001c7   Thumb Code     0  startup_stm32f303xe.o(.text)
    TIM6_DAC_IRQHandler                      0x080001c7   Thumb Code     0  startup_stm32f303xe.o(.text)
    TIM7_IRQHandler                          0x080001c7   Thumb Code     0  startup_stm32f303xe.o(.text)
    TIM8_BRK_IRQHandler                      0x080001c7   Thumb Code     0  startup_stm32f303xe.o(.text)
    TIM8_CC_IRQHandler                       0x080001c7   Thumb Code     0  startup_stm32f303xe.o(.text)
    TIM8_TRG_COM_IRQHandler                  0x080001c7   Thumb Code     0  startup_stm32f303xe.o(.text)
    TIM8_UP_IRQHandler                       0x080001c7   Thumb Code     0  startup_stm32f303xe.o(.text)
    UART4_IRQHandler                         0x080001c7   Thumb Code     0  startup_stm32f303xe.o(.text)
    UART5_IRQHandler                         0x080001c7   Thumb Code     0  startup_stm32f303xe.o(.text)
    USART1_IRQHandler                        0x080001c7   Thumb Code     0  startup_stm32f303xe.o(.text)
    USART2_IRQHandler                        0x080001c7   Thumb Code     0  startup_stm32f303xe.o(.text)
    USART3_IRQHandler                        0x080001c7   Thumb Code     0  startup_stm32f303xe.o(.text)
    USBWakeUp_IRQHandler                     0x080001c7   Thumb Code     0  startup_stm32f303xe.o(.text)
    USBWakeUp_RMP_IRQHandler                 0x080001c7   Thumb Code     0  startup_stm32f303xe.o(.text)
    USB_HP_CAN1_TX_IRQHandler                0x080001c7   Thumb Code     0  startup_stm32f303xe.o(.text)
    USB_HP_IRQHandler                        0x080001c7   Thumb Code     0  startup_stm32f303xe.o(.text)
    USB_LP_IRQHandler                        0x080001c7   Thumb Code     0  startup_stm32f303xe.o(.text)
    WWDG_IRQHandler                          0x080001c7   Thumb Code     0  startup_stm32f303xe.o(.text)
    __aeabi_memcpy                           0x080001d1   Thumb Code    36  memcpya.o(.text)
    __aeabi_memcpy4                          0x080001d1   Thumb Code     0  memcpya.o(.text)
    __aeabi_memcpy8                          0x080001d1   Thumb Code     0  memcpya.o(.text)
    __aeabi_memset                           0x080001f5   Thumb Code    14  memseta.o(.text)
    __aeabi_memset4                          0x080001f5   Thumb Code     0  memseta.o(.text)
    __aeabi_memset8                          0x080001f5   Thumb Code     0  memseta.o(.text)
    __aeabi_memclr                           0x08000203   Thumb Code     4  memseta.o(.text)
    __aeabi_memclr4                          0x08000203   Thumb Code     0  memseta.o(.text)
    __aeabi_memclr8                          0x08000203   Thumb Code     0  memseta.o(.text)
    _memset$wrapper                          0x08000207   Thumb Code    18  memseta.o(.text)
    __cpp_initialize__aeabi_                 0x08000219   Thumb Code    22  cpp_init.o(.text)
    __aeabi_f2d                              0x08000239   Thumb Code    38  f2d.o(.text)
    __default_new_handler()                  0x0800025f   Thumb Code     4  arm_newhandler_noexceptions.o(.text)
    __aeabi_uidiv                            0x08000263   Thumb Code     0  uidiv.o(.text)
    __aeabi_uidivmod                         0x08000263   Thumb Code    44  uidiv.o(.text)
    __aeabi_uldivmod                         0x0800028f   Thumb Code    98  uldiv.o(.text)
    __I$use$fp                               0x080002f1   Thumb Code     0  iusefp.o(.text)
    __rt_new_handler_addr                    0x080002f1   Thumb Code     4  cpp_memory.o(.text)
    __rt_eh_globals_addr                     0x080002f5   Thumb Code    12  cpp_memory.o(.text)
    __aeabi_dadd                             0x08000305   Thumb Code   322  dadd.o(.text)
    __aeabi_dsub                             0x08000447   Thumb Code     6  dadd.o(.text)
    __aeabi_drsub                            0x0800044d   Thumb Code     6  dadd.o(.text)
    __aeabi_dmul                             0x08000453   Thumb Code   228  dmul.o(.text)
    __aeabi_ddiv                             0x08000537   Thumb Code   222  ddiv.o(.text)
    __aeabi_d2ulz                            0x08000615   Thumb Code    48  dfixul.o(.text)
    __aeabi_cdrcmple                         0x08000645   Thumb Code    48  cdrcmple.o(.text)
    std::terminate()                         0x08000675   Thumb Code    26  arm_exceptions_terminate.o(.text)
    __scatterload                            0x08000691   Thumb Code    28  init.o(.text)
    __scatterload_rt2                        0x08000691   Thumb Code     0  init.o(.text)
    __aeabi_llsl                             0x080006b5   Thumb Code    30  llshl.o(.text)
    _ll_shift_l                              0x080006b5   Thumb Code     0  llshl.o(.text)
    __aeabi_llsr                             0x080006d3   Thumb Code    32  llushr.o(.text)
    _ll_ushift_r                             0x080006d3   Thumb Code     0  llushr.o(.text)
    __aeabi_lasr                             0x080006f3   Thumb Code    36  llsshr.o(.text)
    _ll_sshift_r                             0x080006f3   Thumb Code     0  llsshr.o(.text)
    _double_round                            0x08000717   Thumb Code    30  depilogue.o(.text)
    _double_epilogue                         0x08000735   Thumb Code   156  depilogue.o(.text)
    __cxa_get_globals                        0x080007d7   Thumb Code    62  arm_exceptions_globs.o(.text)
    __ARM_exceptions_buffer_init             0x08000821   Thumb Code    18  arm_exceptions_mem.o(.text)
    __ARM_exceptions_buffer_allocate         0x08000833   Thumb Code    22  arm_exceptions_mem.o(.text)
    __ARM_exceptions_buffer_free             0x08000849   Thumb Code    20  arm_exceptions_mem.o(.text)
    ADCInit                                  0x0800085d   Thumb Code   208  adc.o(i.ADCInit)
    ADC_Cmd                                  0x08000931   Thumb Code    22  stm32f30x_adc.o(i.ADC_Cmd)
    ADC_CommonInit                           0x08000949   Thumb Code    82  stm32f30x_adc.o(i.ADC_CommonInit)
    ADC_DMACmd                               0x080009ad   Thumb Code    22  stm32f30x_adc.o(i.ADC_DMACmd)
    ADC_DMAConfig                            0x080009c3   Thumb Code    16  stm32f30x_adc.o(i.ADC_DMAConfig)
    ADC_GetCalibrationStatus                 0x080009d3   Thumb Code    20  stm32f30x_adc.o(i.ADC_GetCalibrationStatus)
    ADC_GetCalibrationValue                  0x080009e7   Thumb Code     8  stm32f30x_adc.o(i.ADC_GetCalibrationValue)
    ADC_GetFlagStatus                        0x080009ef   Thumb Code    18  stm32f30x_adc.o(i.ADC_GetFlagStatus)
    ADC_Init                                 0x08000a01   Thumb Code    58  stm32f30x_adc.o(i.ADC_Init)
    ADC_RegularChannelConfig                 0x08000a41   Thumb Code   250  stm32f30x_adc.o(i.ADC_RegularChannelConfig)
    ADC_SelectCalibrationMode                0x08000b3b   Thumb Code    16  stm32f30x_adc.o(i.ADC_SelectCalibrationMode)
    ADC_StartCalibration                     0x08000b4b   Thumb Code    10  stm32f30x_adc.o(i.ADC_StartCalibration)
    ADC_StartConversion                      0x08000b55   Thumb Code    10  stm32f30x_adc.o(i.ADC_StartConversion)
    ADC_StructInit                           0x08000b5f   Thumb Code    22  stm32f30x_adc.o(i.ADC_StructInit)
    ADC_VoltageRegulatorCmd                  0x08000b75   Thumb Code    30  stm32f30x_adc.o(i.ADC_VoltageRegulatorCmd)
    An_PWM_Pins_Init                         0x08000b95   Thumb Code    68  tim3.o(i.An_PWM_Pins_Init)
    BusFault_Handler                         0x08000bdd   Thumb Code     4  stm32f30x_it.o(i.BusFault_Handler)
    CAN1_Config                              0x08000be1   Thumb Code   246  can.o(i.CAN1_Config)
    CAN_ClearITPendingBit                    0x08000cf1   Thumb Code   162  stm32f30x_can.o(i.CAN_ClearITPendingBit)
    CAN_DeInit                               0x08000d99   Thumb Code    24  stm32f30x_can.o(i.CAN_DeInit)
    CAN_FilterInit                           0x08000db1   Thumb Code   258  stm32f30x_can.o(i.CAN_FilterInit)
    CAN_GetITStatus                          0x08000eb9   Thumb Code   284  stm32f30x_can.o(i.CAN_GetITStatus)
    CAN_Init                                 0x08000fd9   Thumb Code   292  stm32f30x_can.o(i.CAN_Init)
    CAN_Receive                              0x080010fd   Thumb Code   240  stm32f30x_can.o(i.CAN_Receive)
    CAN_StructInit                           0x080011ed   Thumb Code    32  stm32f30x_can.o(i.CAN_StructInit)
    CAN_Transmit                             0x0800120d   Thumb Code   294  stm32f30x_can.o(i.CAN_Transmit)
    CalibrateAdc                             0x08001335   Thumb Code   116  adc.o(i.CalibrateAdc)
    DMA1_Channel1_IRQHandler                 0x080013b1   Thumb Code   328  adc.o(i.DMA1_Channel1_IRQHandler)
    DMA_ClearITPendingBit                    0x08001535   Thumb Code    18  stm32f30x_dma.o(i.DMA_ClearITPendingBit)
    DMA_Cmd                                  0x08001551   Thumb Code    24  stm32f30x_dma.o(i.DMA_Cmd)
    DMA_DeInit                               0x08001569   Thumb Code   324  stm32f30x_dma.o(i.DMA_DeInit)
    DMA_GetITStatus                          0x080016b5   Thumb Code    36  stm32f30x_dma.o(i.DMA_GetITStatus)
    DMA_ITConfig                             0x080016e1   Thumb Code    18  stm32f30x_dma.o(i.DMA_ITConfig)
    DMA_Init                                 0x080016f3   Thumb Code    60  stm32f30x_dma.o(i.DMA_Init)
    DebugMon_Handler                         0x0800172f   Thumb Code     2  stm32f30x_it.o(i.DebugMon_Handler)
    GPIO_Init                                0x08001731   Thumb Code   150  stm32f30x_gpio.o(i.GPIO_Init)
    GPIO_PinAFConfig                         0x080017c7   Thumb Code    70  stm32f30x_gpio.o(i.GPIO_PinAFConfig)
    GPIO_ResetBits                           0x0800180d   Thumb Code     4  stm32f30x_gpio.o(i.GPIO_ResetBits)
    GPIO_SetBits                             0x08001811   Thumb Code     4  stm32f30x_gpio.o(i.GPIO_SetBits)
    HardFault_Handler                        0x08001815   Thumb Code     4  stm32f30x_it.o(i.HardFault_Handler)
    MemManage_Handler                        0x08001819   Thumb Code     4  stm32f30x_it.o(i.MemManage_Handler)
    NMI_Handler                              0x0800181d   Thumb Code     2  stm32f30x_it.o(i.NMI_Handler)
    NVIC_Init                                0x08001821   Thumb Code   100  stm32f30x_misc.o(i.NVIC_Init)
    PendSV_Handler                           0x08001891   Thumb Code     2  stm32f30x_it.o(i.PendSV_Handler)
    RCC_ADCCLKConfig                         0x08001895   Thumb Code    44  stm32f30x_rcc.o(i.RCC_ADCCLKConfig)
    RCC_AHBPeriphClockCmd                    0x080018c5   Thumb Code    26  stm32f30x_rcc.o(i.RCC_AHBPeriphClockCmd)
    RCC_APB1PeriphClockCmd                   0x080018e5   Thumb Code    26  stm32f30x_rcc.o(i.RCC_APB1PeriphClockCmd)
    RCC_APB1PeriphResetCmd                   0x08001905   Thumb Code    26  stm32f30x_rcc.o(i.RCC_APB1PeriphResetCmd)
    RCC_APB2PeriphClockCmd                   0x08001925   Thumb Code    26  stm32f30x_rcc.o(i.RCC_APB2PeriphClockCmd)
    RCC_GetClocksFreq                        0x08001945   Thumb Code  1474  stm32f30x_rcc.o(i.RCC_GetClocksFreq)
    SVC_Handler                              0x08001f1d   Thumb Code     2  stm32f30x_it.o(i.SVC_Handler)
    SetupAdcDma                              0x08001f21   Thumb Code   106  adc.o(i.SetupAdcDma)
    SetupAdcGpio                             0x08001f99   Thumb Code    36  adc.o(i.SetupAdcGpio)
    SysTick_Handler                          0x08001fbd   Thumb Code     8  stm32f30x_it.o(i.SysTick_Handler)
    SystemInit                               0x08001fc5   Thumb Code   112  system_stm32f30x.o(i.SystemInit)
    TIM3_Config                              0x08002049   Thumb Code   142  tim3.o(i.TIM3_Config)
    TIM3_PWM1_setPeriod                      0x080020dd   Thumb Code     6  tim3.o(i.TIM3_PWM1_setPeriod)
    TIM3_PWM2_setPeriod                      0x080020e9   Thumb Code     6  tim3.o(i.TIM3_PWM2_setPeriod)
    TIM_ARRPreloadConfig                     0x080020f5   Thumb Code    24  stm32f30x_tim.o(i.TIM_ARRPreloadConfig)
    TIM_Cmd                                  0x0800210d   Thumb Code    24  stm32f30x_tim.o(i.TIM_Cmd)
    TIM_CtrlPWMOutputs                       0x08002125   Thumb Code    22  stm32f30x_tim.o(i.TIM_CtrlPWMOutputs)
    TIM_OC1Init                              0x0800213d   Thumb Code   120  stm32f30x_tim.o(i.TIM_OC1Init)
    TIM_OC1PreloadConfig                     0x080021cd   Thumb Code    16  stm32f30x_tim.o(i.TIM_OC1PreloadConfig)
    TIM_OC2Init                              0x080021dd   Thumb Code   116  stm32f30x_tim.o(i.TIM_OC2Init)
    TIM_OC2PreloadConfig                     0x0800225d   Thumb Code    18  stm32f30x_tim.o(i.TIM_OC2PreloadConfig)
    TIM_SelectOutputTrigger                  0x0800226f   Thumb Code    18  stm32f30x_tim.o(i.TIM_SelectOutputTrigger)
    TIM_TimeBaseInit                         0x08002281   Thumb Code   128  stm32f30x_tim.o(i.TIM_TimeBaseInit)
    TimingDelay_Decrement                    0x08002329   Thumb Code    18  utils.o(i.TimingDelay_Decrement)
    USART_Cmd                                0x08002341   Thumb Code    22  stm32f30x_usart.o(i.USART_Cmd)
    USART_Init                               0x08002359   Thumb Code   220  stm32f30x_usart.o(i.USART_Init)
    USART_SendData                           0x08002445   Thumb Code     8  stm32f30x_usart.o(i.USART_SendData)
    USB_LP_CAN1_RX0_IRQHandler               0x0800244d   Thumb Code    78  can.o(i.USB_LP_CAN1_RX0_IRQHandler)
    UsageFault_Handler                       0x080024a9   Thumb Code     4  stm32f30x_it.o(i.UsageFault_Handler)
    init_USART()                             0x080024ad   Thumb Code   120  usart.o(i._Z10init_USARTv)
    print_data()                             0x0800252d   Thumb Code    30  main.o(i._Z10print_datav)
    USART1_putc(char)                        0x080026c1   Thumb Code    22  usart.o(i._Z11USART1_putcc)
    USART1_puts(char*)                       0x080026dd   Thumb Code    40  usart.o(i._Z11USART1_putsPc)
    Local_LED_Setup()                        0x08002771   Thumb Code    46  led.o(i._Z15Local_LED_Setupv)
    Status_LED_Setup()                       0x080027a5   Thumb Code    46  led.o(i._Z16Status_LED_Setupv)
    LED(unsigned short, unsigned short)      0x080027d9   Thumb Code    28  led.o(i._Z3LEDtt)
    clr_term()                               0x080027f9   Thumb Code    10  usart.o(i._Z8clr_termv)
    Fuzzy::Fuzzy()                           0x08002803   Thumb Code    16  fuzzy.o(i._ZN5FuzzyC1Ev)
    Fuzzy::Fuzzy__sub_object()               0x08002803   Thumb Code     0  fuzzy.o(i._ZN5FuzzyC1Ev)
    operator new(unsigned)                   0x08002815   Thumb Code    34  new.o(i._Znwj)
    __0snprintf                              0x0800283d   Thumb Code    36  printfa.o(i.__0snprintf)
    __1snprintf                              0x0800283d   Thumb Code     0  printfa.o(i.__0snprintf)
    __2snprintf                              0x0800283d   Thumb Code     0  printfa.o(i.__0snprintf)
    __c89snprintf                            0x0800283d   Thumb Code     0  printfa.o(i.__0snprintf)
    snprintf                                 0x0800283d   Thumb Code     0  printfa.o(i.__0snprintf)
    __scatterload_copy                       0x08002865   Thumb Code    14  handlers.o(i.__scatterload_copy)
    __scatterload_null                       0x08002873   Thumb Code     2  handlers.o(i.__scatterload_null)
    __scatterload_zeroinit                   0x08002875   Thumb Code    14  handlers.o(i.__scatterload_zeroinit)
    can_rx_fifo_full                         0x08003149   Thumb Code    34  can.o(i.can_rx_fifo_full)
    can_rx_fifo_write                        0x08003175   Thumb Code    66  can.o(i.can_rx_fifo_write)
    copyCanPacket                            0x080031c1   Thumb Code    54  can.o(i.copyCanPacket)
    delay                                    0x080031f9   Thumb Code    20  utils.o(i.delay)
    main                                     0x08003211   Thumb Code   480  main.o(i.main)
    malloc                                   0x080034d5   Thumb Code    92  malloc.o(i.malloc)
    printState_ADC                           0x08003541   Thumb Code   138  adc.o(i.printState_ADC)
    Region$$Table$$Base                      0x080036d8   Number         0  anon$$obj.o(Region$$Table)
    Region$$Table$$Limit                     0x080036f8   Number         0  anon$$obj.o(Region$$Table)
    SHT$$INIT_ARRAY$$Base                    0x080036f8   Number         0  main.o(.init_array)
    SHT$$INIT_ARRAY$$Limit                   0x080036fc   Number         0  cpp_init.o(.init_array)
    SystemCoreClock                          0x20000030   Data           4  system_stm32f30x.o(.data)
    AHBPrescTable                            0x20000034   Data          16  system_stm32f30x.o(.data)
    status                                   0x20000044   Data           1  main.o(.data)
    dist                                     0x20000046   Data           2  main.o(.data)
    i                                        0x20000048   Data           1  main.o(.data)
    j                                        0x2000004a   Data           2  main.o(.data)
    CAN1_ID                                  0x2000004c   Data           2  main.o(.data)
    CAN1_DATA0                               0x2000004e   Data           1  main.o(.data)
    CAN1_DATA1                               0x2000004f   Data           1  main.o(.data)
    CAN1_DATA2                               0x20000050   Data           1  main.o(.data)
    CAN1_DATA3                               0x20000051   Data           1  main.o(.data)
    CAN1_DATA4                               0x20000052   Data           1  main.o(.data)
    CAN1_DATA5                               0x20000053   Data           1  main.o(.data)
    CAN1_DATA6                               0x20000054   Data           1  main.o(.data)
    CAN1_DATA7                               0x20000055   Data           1  main.o(.data)
    distR                                    0x20000058   Data           4  main.o(.data)
    distL                                    0x2000005c   Data           4  main.o(.data)
    DistInput                                0x20000060   Data           4  main.o(.data)
    rowInput                                 0x20000064   Data           4  main.o(.data)
    steering                                 0x20000068   Data           4  main.o(.data)
    doneSampling                             0x2000006c   Data           4  main.o(.data)
    ADC1ConvertedValue                       0x20000070   Data           2  main.o(.data)
    ADC1ConvertedVoltage                     0x20000072   Data           2  main.o(.data)
    ADC1ConvertedVoltageF                    0x20000074   Data           4  main.o(.data)
    unitDelay                                0x20000078   Data           4  main.o(.data)
    buf_size                                 0x2000007c   Data           1  main.o(.data)
    currentTime                              0x2000007e   Data           2  main.o(.data)
    previousTime                             0x20000080   Data           2  main.o(.data)
    deltaTime                                0x20000082   Data           2  main.o(.data)
    frameCounter                             0x20000084   Data           2  main.o(.data)
    run_flag                                 0x20000088   Data           4  main.o(.data)
    data0                                    0x2000008c   Data           1  main.o(.data)
    fuzzy                                    0x20000090   Data           4  main.o(.data)
    calibration_value                        0x20000098   Data           2  adc.o(.data)
    ADC12ConvertedValue                      0x2000009a   Data           4  adc.o(.data)
    voltages                                 0x200000a0   Data           8  adc.o(.data)
    speed1                                   0x200000a8   Data           4  adc.o(.data)
    speed2                                   0x200000ac   Data           4  adc.o(.data)
    temp                                     0x200000b0   Data           8  adc.o(.data)
    temp2                                    0x200000b8   Data           8  adc.o(.data)
    distFl                                   0x200000c0   Data           8  adc.o(.data)
    distanceCm                               0x200000c8   Data           4  adc.o(.data)
    tx_mbx                                   0x200000cc   Data           1  adc.o(.data)
    __microlib_freelist                      0x200000d4   Data           4  mvars.o(.data)
    __microlib_freelist_initialised          0x200000d8   Data           4  mvars.o(.data)
    msg                                      0x200000e8   Data         120  main.o(.bss)
    TxMessage                                0x20000160   Data          20  main.o(.bss)
    RxMessage                                0x20000174   Data          20  main.o(.bss)
    CAN_InitStructure                        0x20000720   Data          12  can.o(.bss)
    CAN_FilterInitStructure                  0x2000072c   Data          14  can.o(.bss)
    __heap_base                              0x20000740   Data           0  startup_stm32f303xe.o(HEAP)
    __heap_limit                             0x20000f40   Data           0  startup_stm32f303xe.o(HEAP)
    __initial_sp                             0x20001740   Data           0  startup_stm32f303xe.o(STACK)



==============================================================================

Memory Map of the image

  Image Entry point : 0x08000195

  Load Region LR_IROM1 (Base: 0x08000000, Size: 0x000037e4, Max: 0x00010000, ABSOLUTE)

    Execution Region ER_IROM1 (Base: 0x08000000, Size: 0x000036fc, Max: 0x00010000, ABSOLUTE)

    Base Addr    Size         Type   Attr      Idx    E Section Name        Object

    0x08000000   0x00000194   Data   RO            3    RESET               startup_stm32f303xe.o
    0x08000194   0x00000000   Code   RO         6345  * .ARM.Collect$$$$00000000  mc_w.l(entry.o)
    0x08000194   0x00000004   Code   RO         6669    .ARM.Collect$$$$00000001  mc_w.l(entry2.o)
    0x08000198   0x00000004   Code   RO         6672    .ARM.Collect$$$$00000004  mc_w.l(entry5.o)
    0x0800019c   0x00000000   Code   RO         6674    .ARM.Collect$$$$00000008  mc_w.l(entry7b.o)
    0x0800019c   0x00000004   Code   RO         6675    .ARM.Collect$$$$00000009  mc_w.l(entry8a.o)
    0x080001a0   0x00000000   Code   RO         6676    .ARM.Collect$$$$0000000A  mc_w.l(entry8b.o)
    0x080001a0   0x00000008   Code   RO         6677    .ARM.Collect$$$$0000000B  mc_w.l(entry9a.o)
    0x080001a8   0x00000000   Code   RO         6679    .ARM.Collect$$$$0000000D  mc_w.l(entry10a.o)
    0x080001a8   0x00000000   Code   RO         6681    .ARM.Collect$$$$0000000F  mc_w.l(entry11a.o)
    0x080001a8   0x00000004   Code   RO         6670    .ARM.Collect$$$$00002712  mc_w.l(entry2.o)
    0x080001ac   0x00000024   Code   RO            4    .text               startup_stm32f303xe.o
    0x080001d0   0x00000024   Code   RO         6348    .text               mc_w.l(memcpya.o)
    0x080001f4   0x00000024   Code   RO         6350    .text               mc_w.l(memseta.o)
    0x08000218   0x00000020   Code   RO         6646    .text               mc_w.l(cpp_init.o)
    0x08000238   0x00000026   Code   RO         6648    .text               mf_w.l(f2d.o)
    0x0800025e   0x00000004   Code   RO         6653    .text               cpprt_w.l(arm_newhandler_noexceptions.o)
    0x08000262   0x0000002c   Code   RO         6686    .text               mc_w.l(uidiv.o)
    0x0800028e   0x00000062   Code   RO         6688    .text               mc_w.l(uldiv.o)
    0x080002f0   0x00000000   Code   RO         6692    .text               mc_w.l(iusefp.o)
    0x080002f0   0x00000014   Code   RO         6693    .text               mc_w.l(cpp_memory.o)
    0x08000304   0x0000014e   Code   RO         6696    .text               mf_w.l(dadd.o)
    0x08000452   0x000000e4   Code   RO         6698    .text               mf_w.l(dmul.o)
    0x08000536   0x000000de   Code   RO         6700    .text               mf_w.l(ddiv.o)
    0x08000614   0x00000030   Code   RO         6702    .text               mf_w.l(dfixul.o)
    0x08000644   0x00000030   Code   RO         6704    .text               mf_w.l(cdrcmple.o)
    0x08000674   0x0000001a   Code   RO         6828    .text               cpprt_w.l(arm_exceptions_terminate.o)
    0x0800068e   0x00000002   PAD
    0x08000690   0x00000024   Code   RO         6834    .text               mc_w.l(init.o)
    0x080006b4   0x0000001e   Code   RO         6837    .text               mc_w.l(llshl.o)
    0x080006d2   0x00000020   Code   RO         6839    .text               mc_w.l(llushr.o)
    0x080006f2   0x00000024   Code   RO         6841    .text               mc_w.l(llsshr.o)
    0x08000716   0x000000ba   Code   RO         6844    .text               mf_w.l(depilogue.o)
    0x080007d0   0x00000050   Code   RO         6862    .text               cpprt_w.l(arm_exceptions_globs.o)
    0x08000820   0x0000003c   Code   RO         6877    .text               cpprt_w.l(arm_exceptions_mem.o)
    0x0800085c   0x000000d4   Code   RO         5560    i.ADCInit           adc.o
    0x08000930   0x00000016   Code   RO         2780    i.ADC_Cmd           stm32f30x_adc.o
    0x08000946   0x00000002   PAD
    0x08000948   0x00000064   Code   RO         2781    i.ADC_CommonInit    stm32f30x_adc.o
    0x080009ac   0x00000016   Code   RO         2783    i.ADC_DMACmd        stm32f30x_adc.o
    0x080009c2   0x00000010   Code   RO         2784    i.ADC_DMAConfig     stm32f30x_adc.o
    0x080009d2   0x00000014   Code   RO         2790    i.ADC_GetCalibrationStatus  stm32f30x_adc.o
    0x080009e6   0x00000008   Code   RO         2791    i.ADC_GetCalibrationValue  stm32f30x_adc.o
    0x080009ee   0x00000012   Code   RO         2796    i.ADC_GetFlagStatus  stm32f30x_adc.o
    0x08000a00   0x00000040   Code   RO         2802    i.ADC_Init          stm32f30x_adc.o
    0x08000a40   0x000000fa   Code   RO         2807    i.ADC_RegularChannelConfig  stm32f30x_adc.o
    0x08000b3a   0x00000010   Code   RO         2809    i.ADC_SelectCalibrationMode  stm32f30x_adc.o
    0x08000b4a   0x0000000a   Code   RO         2817    i.ADC_StartCalibration  stm32f30x_adc.o
    0x08000b54   0x0000000a   Code   RO         2818    i.ADC_StartConversion  stm32f30x_adc.o
    0x08000b5e   0x00000016   Code   RO         2822    i.ADC_StructInit    stm32f30x_adc.o
    0x08000b74   0x0000001e   Code   RO         2825    i.ADC_VoltageRegulatorCmd  stm32f30x_adc.o
    0x08000b92   0x00000002   PAD
    0x08000b94   0x00000048   Code   RO         5670    i.An_PWM_Pins_Init  tim3.o
    0x08000bdc   0x00000004   Code   RO         4804    i.BusFault_Handler  stm32f30x_it.o
    0x08000be0   0x00000110   Code   RO         5733    i.CAN1_Config       can.o
    0x08000cf0   0x000000a8   Code   RO         2571    i.CAN_ClearITPendingBit  stm32f30x_can.o
    0x08000d98   0x00000018   Code   RO         2573    i.CAN_DeInit        stm32f30x_can.o
    0x08000db0   0x00000108   Code   RO         2575    i.CAN_FilterInit    stm32f30x_can.o
    0x08000eb8   0x00000120   Code   RO         2577    i.CAN_GetITStatus   stm32f30x_can.o
    0x08000fd8   0x00000124   Code   RO         2582    i.CAN_Init          stm32f30x_can.o
    0x080010fc   0x000000f0   Code   RO         2585    i.CAN_Receive       stm32f30x_can.o
    0x080011ec   0x00000020   Code   RO         2588    i.CAN_StructInit    stm32f30x_can.o
    0x0800120c   0x00000126   Code   RO         2590    i.CAN_Transmit      stm32f30x_can.o
    0x08001332   0x00000002   PAD
    0x08001334   0x0000007c   Code   RO         5561    i.CalibrateAdc      adc.o
    0x080013b0   0x00000184   Code   RO         5562    i.DMA1_Channel1_IRQHandler  adc.o
    0x08001534   0x0000001c   Code   RO         4399    i.DMA_ClearITPendingBit  stm32f30x_dma.o
    0x08001550   0x00000018   Code   RO         4400    i.DMA_Cmd           stm32f30x_dma.o
    0x08001568   0x0000014c   Code   RO         4401    i.DMA_DeInit        stm32f30x_dma.o
    0x080016b4   0x0000002c   Code   RO         4404    i.DMA_GetITStatus   stm32f30x_dma.o
    0x080016e0   0x00000012   Code   RO         4405    i.DMA_ITConfig      stm32f30x_dma.o
    0x080016f2   0x0000003c   Code   RO         4406    i.DMA_Init          stm32f30x_dma.o
    0x0800172e   0x00000002   Code   RO         4805    i.DebugMon_Handler  stm32f30x_it.o
    0x08001730   0x00000096   Code   RO         3227    i.GPIO_Init         stm32f30x_gpio.o
    0x080017c6   0x00000046   Code   RO         3228    i.GPIO_PinAFConfig  stm32f30x_gpio.o
    0x0800180c   0x00000004   Code   RO         3234    i.GPIO_ResetBits    stm32f30x_gpio.o
    0x08001810   0x00000004   Code   RO         3235    i.GPIO_SetBits      stm32f30x_gpio.o
    0x08001814   0x00000004   Code   RO         4806    i.HardFault_Handler  stm32f30x_it.o
    0x08001818   0x00000004   Code   RO         4807    i.MemManage_Handler  stm32f30x_it.o
    0x0800181c   0x00000002   Code   RO         4808    i.NMI_Handler       stm32f30x_it.o
    0x0800181e   0x00000002   PAD
    0x08001820   0x00000070   Code   RO          880    i.NVIC_Init         stm32f30x_misc.o
    0x08001890   0x00000002   Code   RO         4809    i.PendSV_Handler    stm32f30x_it.o
    0x08001892   0x00000002   PAD
    0x08001894   0x00000030   Code   RO         1062    i.RCC_ADCCLKConfig  stm32f30x_rcc.o
    0x080018c4   0x00000020   Code   RO         1063    i.RCC_AHBPeriphClockCmd  stm32f30x_rcc.o
    0x080018e4   0x00000020   Code   RO         1065    i.RCC_APB1PeriphClockCmd  stm32f30x_rcc.o
    0x08001904   0x00000020   Code   RO         1066    i.RCC_APB1PeriphResetCmd  stm32f30x_rcc.o
    0x08001924   0x00000020   Code   RO         1067    i.RCC_APB2PeriphClockCmd  stm32f30x_rcc.o
    0x08001944   0x000005d8   Code   RO         1075    i.RCC_GetClocksFreq  stm32f30x_rcc.o
    0x08001f1c   0x00000002   Code   RO         4810    i.SVC_Handler       stm32f30x_it.o
    0x08001f1e   0x00000002   PAD
    0x08001f20   0x00000078   Code   RO         5563    i.SetupAdcDma       adc.o
    0x08001f98   0x00000024   Code   RO         5564    i.SetupAdcGpio      adc.o
    0x08001fbc   0x00000008   Code   RO         4811    i.SysTick_Handler   stm32f30x_it.o
    0x08001fc4   0x00000084   Code   RO         4956    i.SystemInit        system_stm32f30x.o
    0x08002048   0x00000094   Code   RO         5672    i.TIM3_Config       tim3.o
    0x080020dc   0x0000000c   Code   RO         5673    i.TIM3_PWM1_setPeriod  tim3.o
    0x080020e8   0x0000000c   Code   RO         5674    i.TIM3_PWM2_setPeriod  tim3.o
    0x080020f4   0x00000018   Code   RO         3338    i.TIM_ARRPreloadConfig  stm32f30x_tim.o
    0x0800210c   0x00000018   Code   RO         3356    i.TIM_Cmd           stm32f30x_tim.o
    0x08002124   0x00000016   Code   RO         3358    i.TIM_CtrlPWMOutputs  stm32f30x_tim.o
    0x0800213a   0x00000002   PAD
    0x0800213c   0x00000090   Code   RO         3387    i.TIM_OC1Init       stm32f30x_tim.o
    0x080021cc   0x00000010   Code   RO         3390    i.TIM_OC1PreloadConfig  stm32f30x_tim.o
    0x080021dc   0x00000080   Code   RO         3392    i.TIM_OC2Init       stm32f30x_tim.o
    0x0800225c   0x00000012   Code   RO         3395    i.TIM_OC2PreloadConfig  stm32f30x_tim.o
    0x0800226e   0x00000012   Code   RO         3426    i.TIM_SelectOutputTrigger  stm32f30x_tim.o
    0x08002280   0x000000a8   Code   RO         3443    i.TIM_TimeBaseInit  stm32f30x_tim.o
    0x08002328   0x00000018   Code   RO         5413    i.TimingDelay_Decrement  utils.o
    0x08002340   0x00000016   Code   RO         1372    i.USART_Cmd         stm32f30x_usart.o
    0x08002356   0x00000002   PAD
    0x08002358   0x000000ec   Code   RO         1384    i.USART_Init        stm32f30x_usart.o
    0x08002444   0x00000008   Code   RO         1401    i.USART_SendData    stm32f30x_usart.o
    0x0800244c   0x0000005c   Code   RO         5734    i.USB_LP_CAN1_RX0_IRQHandler  can.o
    0x080024a8   0x00000004   Code   RO         4812    i.UsageFault_Handler  stm32f30x_it.o
    0x080024ac   0x00000080   Code   RO         5303    i._Z10init_USARTv   usart.o
    0x0800252c   0x00000058   Code   RO         5008    i._Z10print_datav   main.o
    0x08002584   0x0000013c   Code   RO         4957    i._Z11SetSysClockv  system_stm32f30x.o
    0x080026c0   0x0000001c   Code   RO         5305    i._Z11USART1_putcc  usart.o
    0x080026dc   0x0000002c   Code   RO         5306    i._Z11USART1_putsPc  usart.o
    0x08002708   0x00000012   Code   RO         2593    i._Z13CheckITStatusjj  stm32f30x_can.o
    0x0800271a   0x00000002   PAD
    0x0800271c   0x00000054   Code   RO         5566    i._Z14SysTick_Configj  adc.o
    0x08002770   0x00000034   Code   RO         5146    i._Z15Local_LED_Setupv  led.o
    0x080027a4   0x00000034   Code   RO         5147    i._Z16Status_LED_Setupv  led.o
    0x080027d8   0x00000020   Code   RO         5148    i._Z3LEDtt          led.o
    0x080027f8   0x0000000a   Code   RO         5307    i._Z8clr_termv      usart.o
    0x08002802   0x00000010   Code   RO         5850    i._ZN5FuzzyC1Ev     fuzzy.o
    0x08002812   0x00000002   PAD
    0x08002814   0x00000028   Code   RO         6341    i._Znwj             cpprt_w.l(new.o)
    0x0800283c   0x00000028   Code   RO         6588    i.__0snprintf       mc_w.l(printfa.o)
    0x08002864   0x0000000e   Code   RO         6888    i.__scatterload_copy  mc_w.l(handlers.o)
    0x08002872   0x00000002   Code   RO         6889    i.__scatterload_null  mc_w.l(handlers.o)
    0x08002874   0x0000000e   Code   RO         6890    i.__scatterload_zeroinit  mc_w.l(handlers.o)
    0x08002882   0x00000002   PAD
    0x08002884   0x0000001c   Code   RO         5009    i.__sti___6_main_c_dist  main.o
    0x080028a0   0x00000164   Code   RO         6594    i._fp_digits        mc_w.l(printfa.o)
    0x08002a04   0x000006dc   Code   RO         6595    i._printf_core      mc_w.l(printfa.o)
    0x080030e0   0x00000024   Code   RO         6596    i._printf_post_padding  mc_w.l(printfa.o)
    0x08003104   0x0000002e   Code   RO         6597    i._printf_pre_padding  mc_w.l(printfa.o)
    0x08003132   0x00000016   Code   RO         6598    i._snputc           mc_w.l(printfa.o)
    0x08003148   0x0000002c   Code   RO         5738    i.can_rx_fifo_full  can.o
    0x08003174   0x0000004c   Code   RO         5740    i.can_rx_fifo_write  can.o
    0x080031c0   0x00000036   Code   RO         5742    i.copyCanPacket     can.o
    0x080031f6   0x00000002   PAD
    0x080031f8   0x00000018   Code   RO         5414    i.delay             utils.o
    0x08003210   0x000002c4   Code   RO         5010    i.main              main.o
    0x080034d4   0x0000006c   Code   RO         6616    i.malloc            mc_w.l(malloc.o)
    0x08003540   0x00000138   Code   RO         5571    i.printState_ADC    adc.o
    0x08003678   0x00000060   Data   RO         5015    .conststring        main.o
    0x080036d8   0x00000020   Data   RO         6886    Region$$Table       anon$$obj.o
    0x080036f8   0x00000004   Data   RO         5017    .init_array         main.o
    0x080036fc   0x00000000   Data   RO         6644    .init_array         mc_w.l(cpp_init.o)


    Execution Region RW_IRAM1 (Base: 0x20000000, Size: 0x00001740, Max: 0x00003000, ABSOLUTE)

    Base Addr    Size         Type   Attr      Idx    E Section Name        Object

    0x20000000   0x00000030   Data   RW         1142    .data               stm32f30x_rcc.o
    0x20000030   0x00000014   Data   RW         4961    .data               system_stm32f30x.o
    0x20000044   0x00000050   Data   RW         5016    .data               main.o
    0x20000094   0x00000004   Data   RW         5430    .data               utils.o
    0x20000098   0x00000038   Data   RW         5585    .data               adc.o
    0x200000d0   0x00000004   Data   RW         5758    .data               can.o
    0x200000d4   0x00000004   Data   RW         6690    .data               mc_w.l(mvars.o)
    0x200000d8   0x00000004   Data   RW         6691    .data               mc_w.l(mvars.o)
    0x200000dc   0x0000000c   Data   RW         6694    .data               mc_w.l(cpp_memory.o)
    0x200000e8   0x000000a0   Zero   RW         5014    .bss                main.o
    0x20000188   0x00000064   Zero   RW         5584    .bss                adc.o
    0x200001ec   0x0000054e   Zero   RW         5757    .bss                can.o
    0x2000073a   0x00000006   PAD
    0x20000740   0x00000800   Zero   RW            2    HEAP                startup_stm32f303xe.o
    0x20000f40   0x00000800   Zero   RW            1    STACK               startup_stm32f303xe.o


==============================================================================

Image component sizes


      Code (inc. data)   RO Data    RW Data    ZI Data      Debug   Object Name

      1276        270          0         56        100      33055   adc.o
       538         60          0          4       1358       4970   can.o
        16          0          0          0          0        596   fuzzy.o
       136         16          0          0          0       1955   led.o
       824        292        100         80        160      38748   main.o
        36          8        404          0       4096        968   startup_stm32f303xe.o
       608         24          0          0          0      29663   stm32f30x_adc.o
      1620         16          0          0          0      17493   stm32f30x_can.o
       506         26          0          0          0      16571   stm32f30x_dma.o
         0          0          0          0          0     306032   stm32f30x_fmc.o
       228          0          0          0          0       9119   stm32f30x_gpio.o
        32          0          0          0          0     385394   stm32f30x_it.o
       112         12          0          0          0       3496   stm32f30x_misc.o
      1672         50          0         48          0      25930   stm32f30x_rcc.o
       562         76          0          0          0      33937   stm32f30x_tim.o
       266         16          0          0          0      13574   stm32f30x_usart.o
       448         34          0         20          0      12705   system_stm32f30x.o
       244         22          0          0          0       2633   tim3.o
       210         18          0          0          0       2580   usart.o
        48         10          0          4          0       2104   utils.o

    ----------------------------------------------------------------------
      9404        950        536        212       5720     941523   Object Totals
         0          0         32          0          0          0   (incl. Generated)
        22          0          0          0          6          0   (incl. Padding)

    ----------------------------------------------------------------------

      Code (inc. data)   RO Data    RW Data    ZI Data      Debug   Library Member Name

        80         12          0          0          0        104   arm_exceptions_globs.o
        60          0          0          0          0        108   arm_exceptions_mem.o
        26          0          0          0          0         76   arm_exceptions_terminate.o
         4          0          0          0          0         68   arm_newhandler_noexceptions.o
        40          6          0          0          0         76   new.o
        32         10          0          0          0         80   cpp_init.o
        20          4          0         12          0        136   cpp_memory.o
         0          0          0          0          0          0   entry.o
         0          0          0          0          0          0   entry10a.o
         0          0          0          0          0          0   entry11a.o
         8          4          0          0          0          0   entry2.o
         4          0          0          0          0          0   entry5.o
         0          0          0          0          0          0   entry7b.o
         4          0          0          0          0          0   entry8a.o
         0          0          0          0          0          0   entry8b.o
         8          4          0          0          0          0   entry9a.o
        30          0          0          0          0          0   handlers.o
        36          8          0          0          0         68   init.o
         0          0          0          0          0          0   iusefp.o
        30          0          0          0          0         68   llshl.o
        36          0          0          0          0         68   llsshr.o
        32          0          0          0          0         68   llushr.o
       108         16          0          0          0         84   malloc.o
        36          0          0          0          0         68   memcpya.o
        36          0          0          0          0        108   memseta.o
         0          0          0          8          0          0   mvars.o
      2256         84          0          0          0        512   printfa.o
        44          0          0          0          0         80   uidiv.o
        98          0          0          0          0         92   uldiv.o
        48          0          0          0          0         68   cdrcmple.o
       334          0          0          0          0        148   dadd.o
       222          0          0          0          0        100   ddiv.o
       186          0          0          0          0        176   depilogue.o
        48          0          0          0          0         68   dfixul.o
       228          0          0          0          0         96   dmul.o
        38          0          0          0          0         68   f2d.o

    ----------------------------------------------------------------------
      4136        148          0         20          0       2588   Library Totals
         4          0          0          0          0          0   (incl. Padding)

    ----------------------------------------------------------------------

      Code (inc. data)   RO Data    RW Data    ZI Data      Debug   Library Name

       210         18          0          0          0        432   cpprt_w.l
      2818        130          0         20          0       1432   mc_w.l
      1104          0          0          0          0        724   mf_w.l

    ----------------------------------------------------------------------
      4136        148          0         20          0       2588   Library Totals

    ----------------------------------------------------------------------

==============================================================================


      Code (inc. data)   RO Data    RW Data    ZI Data      Debug   

     13540       1098        536        232       5720     934415   Grand Totals
     13540       1098        536        232       5720     934415   ELF Image Totals
     13540       1098        536        232          0          0   ROM Totals

==============================================================================

    Total RO  Size (Code + RO Data)                14076 (  13.75kB)
    Total RW  Size (RW Data + ZI Data)              5952 (   5.81kB)
    Total ROM Size (Code + RO Data + RW Data)      14308 (  13.97kB)

==============================================================================

